:100000002EC400005BC4000059C4000057C40000A7
:1000100055C4000053C4000051C400004FC4000088
:100020004DC400004BC4000049C4000047C4000098
:1000300045C4000043C4000041C400003FC40000A8
:100040003DC400003BC4000043C6000037C40000AC
:1000500035C4000033C4000031C400002FC40000C8
:100060002DC400000C94320B29C4000027C40000EA
:1000700025C400000C94B60921C400001FC4000070
:100080000C9483091BC4000019C4000017C40000AD
:100090000C946B0B13C4000011C400000FC40000CB
:1000A0000DC400000BC4000009C4000007C4000018
:1000B00005C4000003C4000001C40000FFC3000029
:1000C000FDC30000FBC30000F9C30000F7C300003C
:1000D000F5C30000F3C30000F1C30000EFC300004C
:1000E000EDC30000CA05C605C205BE05BA05B605C2
:1000F000B205D505CA05C605C205BE05BA05B605D1
:10010000B205CE05EAFFEAFFEAFFEBFFEBFFEBFFEC
:10011000ECFFECFFECFFEDFFEDFFEDFFEEFFEEFF80
:10012000EEFFEFFFEFFFEFFFF0FFF0FFF0FFF1FF5B
:10013000F1FFF1FFF2FFF2FFF2FFF3FFF3FFF4FF35
:10014000F4FFF4FFF5FFF5FFF5FFF6FFF6FFF6FF0E
:10015000F7FFF7FFF7FFF8FFF8FFF8FFF9FFF9FFE8
:10016000F9FFFAFFFAFFFBFFFBFFFBFFFCFFFCFFC1
:10017000FCFFFDFFFDFFFDFFFEFFFEFFFFFFFFFF9A
:10018000FFFF00000000000001000100010002006C
:100190000200030003000300040004000400050043
:1001A000050005000600060007000700070008001C
:1001B00008000800090009000A000A000A000B00F4
:1001C0000B000B000C000C000D000D000D000E00CC
:1001D0000E000F000F000F001000100010001100A3
:1001E000110012001200120013001300140014007A
:1001F0001400150015001500160016001700170052
:100200001700180018001900190019001A001A0028
:100210001B001B001B001C001C001D001D001D00FE
:100220001E001E001F001F001F00200020002100D4
:1002300021002200220022002300230024002400A9
:100240002400250025002600260026002700270080
:10025000280028002900290029002A002A002B0054
:100260002B002B002C002C002D002D002E002E002A
:100270002E002F002F0030003000310031003100FF
:1002800032003200330033003400340034003500D3
:1002900035003600360037003700380038003800A7
:1002A000390039003A003A003B003B003C003C007A
:1002B0003C003D003D003E003E003F003F0040004E
:1002C0004000400041004100420042004300430022
:1002D00044004400450045004600460046004700F3
:1002E000470048004800490049004A004A004B00C6
:1002F0004B004C004C004C004D004D004E004E0099
:100300004F004F0050005000510051005200520069
:100310005300530054005400550055005600560039
:1003200057005700570058005800590059005A000C
:100330005A005B005B005C005C005D005D005E00DD
:100340005E005F005F0060006000610061006200AD
:10035000620063006300640064006500650066007D
:1003600066006700670068006800690069006A004D
:100370006B006B006C006C006D006D006E006E0019
:100380006F006F00700070007100710072007200E9
:1003900073007300740074007500760076007700B7
:1003A000770078007800790079007A007A007B0085
:1003B0007B007C007D007D007E007E007F007F0052
:1003C000800080008100810082008300830084001F
:1003D00084008500850086008600870088008800EC
:1003E000890089008A008A008B008C008C008D00B7
:1003F0008D008E008E008F00900090009100910083
:10040000920092009300940094009500950096004D
:100410009700970098009800990099009A009B0017
:100420009B009C009C009D009E009E009F009F00E2
:10043000A000A100A100A200A200A300A400A400AB
:10044000A500A500A600A700A700A800A900A90074
:10045000AA00AA00AB00AC00AC00AD00AE00AE003C
:10046000AF00ECFFECFFEDFFEDFFEDFFEDFFEEFF6A
:10047000EEFFEEFFEEFFEFFFEFFFEFFFEFFFF0FF0E
:10048000F0FFF0FFF0FFF1FFF1FFF1FFF1FFF2FFEE
:10049000F2FFF2FFF2FFF3FFF3FFF3FFF3FFF4FFCE
:1004A000F4FFF4FFF4FFF5FFF5FFF5FFF5FFF6FFAE
:1004B000F6FFF6FFF6FFF7FFF7FFF7FFF7FFF8FF8E
:1004C000F8FFF8FFF8FFF9FFF9FFF9FFF9FFFAFF6E
:1004D000FAFFFAFFFAFFFBFFFBFFFBFFFBFFFCFF4E
:1004E000FCFFFCFFFCFFFDFFFDFFFDFFFDFFFEFF2E
:1004F000FEFFFEFFFEFFFFFFFFFFFFFFFFFF00000D
:1005000000000000000001000100010001000200E5
:1005100002000200020003000300030003000400C5
:1005200004000400040005000500050005000600A5
:100530000600060006000700070007000800080084
:100540000800080009000900090009000A000A0063
:100550000A000A000B000B000B000B000C000C0043
:100560000C000C000D000D000D000D000E000E0023
:100570000E000F000F000F000F0010001000100001
:1005800010001100110011001100120012001200E1
:1005900012001300130013001400140014001400C0
:1005A000150015001500150016001600160016009F
:1005B000170017001700180018001800180019007D
:1005C0001900190019001A001A001A001A001B005D
:1005D0001B001B001C001C001C001C001D001D003B
:1005E0001D001D001E001E001E001E001F001F001B
:1005F0001F002000200020002000210021002100F9
:1006000021002200220022002300230023002300D7
:1006100024002400240024002500250025002600B5
:100620002600260026002700270027002700280094
:100630002800280029002900290029002A002A0072
:100640002A002A002B002B002B002C002C002C0051
:100650002C002D002D002D002E002E002E002E002F
:100660002F002F002F002F0030003000300031000D
:1006700031003100310032003200320033003300EB
:1006800033003300340034003400340035003500CA
:1006900035003600360036003600370037003700A8
:1006A00038003800380038003900390039003A0085
:1006B0003A003A003A003B003B003B003C003C0063
:1006C0003C003C003D003D003D003D003E003E0042
:1006D0003E003F003F003F003F0040004000400020
:1006E00041004100410041004200420042004300FD
:1006F00043004300430044004400440045004500DB
:1007000045004500460046004600470047004700B8
:1007100048004800480048004900490049004A0094
:100720004A004A004A004B004B004B004C004C0072
:100730004C004C004D004D004D004E004E004E0050
:100740004E004F004F004F0050005000500051002D
:10075000510051005100520052005200530053000A
:1007600053005300540054005400550055005500E8
:1007700056005600560056005700570057005800C4
:100780005800580058005900590059005A005A00A2
:100790005A005B005B005B005B005C005C005C007F
:1007A0005D005D005D005E005E005E005E005F005B
:1007B0005F005F0060006000600061006100610038
:1007C0006100620062006200630063006300640015
:1007D00064006400640065006500650066006600F2
:1007E00066006700670067006700680068006800CF
:1007F0006900690069006A006A006A006A006B00AB
:100800006B006B006C006C006C006D006D006D0087
:100810006E006E006E006E006F006F006F00700063
:100820007000700071007100710071007200720040
:10083000720073007300730074007400740075001C
:1008400075007500750076007600760077007700F9
:100850007700780078007800DF09790BE50911242A
:100860001FBECFEFD1E2DEBFCDBF00E00CBF25E061
:10087000A6E0B2E001C01D92AF32B207E1F712E08C
:10088000A0E0B2E0EAEBF9E100E00BBF02C00790A4
:100890000D92A630B107D9F714E0CEE2D4E000E023
:1008A00005C021970109802FFE0126D7CC32D10740
:1008B00080E00807B1F712D50C94CC0CA1CBEF92D5
:1008C000FF920F931F93CF93DF938C01EC017C0178
:1008D00080E8E81A8EEFF80ACE0193D66896CE1516
:1008E000DF05D1F7F801E057FE4F81E08083709675
:1008F000808388833F97808370968083B0978083BE
:100900007196808370968083B09780837196808380
:1009100070968083B0978083719680837096808371
:10092000B09780837196808370968083B097808320
:100930007196808370968083B09780837196808350
:1009400070968083B0978083719680837096808341
:10095000B09780837196808370968083B0978083F0
:100960007196808370968083B09780837196808320
:1009700070968083B0978083719680837096808311
:10098000B09780837196808370968083B0978083C0
:100990007196808370968083B097808371968083F0
:1009A00070968083B097808380EC80937C008DEA82
:1009B00080937A0085E080937B00B196108289E075
:1009C0008093810084E080936F0081E393E29093B1
:1009D0008900809388008FEF80937E0080937D0054
:1009E000DF91CF911F910F91FF90EF900895CF92DB
:1009F000DF92EF92FF920F931F93CF93DF939C01AF
:100A0000EC01C055DE4F888190E080319105C0F146
:100A100000E010E08881F901E80FF11DE056FE4F7B
:100A200080818823B9F179018881F901E80FF11DEE
:100A3000E057FE4F8081882309F4BEC08881F90108
:100A4000E80FF11DE058FE4F8081882309F4D2C0E1
:100A50008881F701E80FF11DE058FE4F8081813059
:100A600009F4FFC088818F3008F46CC01882DF91D0
:100A7000CF911F910F91FF90EF90DF90CF9008954D
:100A8000FC0100917800109179008827EE58FF4F03
:100A90008F4F32C68881F901E80FF11DE057FE4FF4
:100AA0008081882309F452C08881F901E80FF11D83
:100AB000E058FE4F808181111DC0888190E000398F
:100AC00041E014070CF4C4C00F3343E014070CF4E6
:100AD000EFC0EEEAF1E0EE0FFF1FEC5FFE4F459135
:100AE0005491880F991F820F931FFC01EF54FE4F02
:100AF000518340838881F901E80FF11DE058FE4FD2
:100B00008081813009F0AECF888190E0083542E0E5
:100B100014070CF4A3C0011544E014070CF4CCC076
:100B2000E7EAF1E0EE0FFF1FEE59FB4F45915491BC
:100B3000880F991F280F391FF901EF54FE4F518379
:100B4000408390CF88818F5F888391CFE881F0E0E8
:100B5000EE0FFF1F2E0F3F1FF901EF54FE4F1183C1
:100B6000008380CF87EC80937C0054CF86EC809309
:100B70007C0050CF85EC80937C004CCF84EC80933C
:100B80007C0048CF83EC80937C0044CF82EC809340
:100B90007C0040CF81EC80937C003CCF80EC809344
:100BA0007C0085E080937B0035CF8DE080937B00D7
:100BB00080EC80937C002ECFC880D12C888190E07F
:100BC0009C01220F331F820F931F880F991F880FDC
:100BD000991F880F991FB8018E0D9F1D05D496018E
:100BE000220F331F2E0D3F1DF901EF54FE4F91834D
:100BF000808338CFC880D12C888190E09C01220F5F
:100C0000331F820F931F880F991F880F991F880F1A
:100C1000991FB8018E0D9F1DE7D3803921E09207FF
:100C2000D4F08F3343E094070CF44AC0EEEAF1E0CD
:100C3000EE0FFF1FEC5FFE4F85919491CC0CDD1CF5
:100C4000CE0CDF1CF601EF54FE4F9183808300CF62
:100C5000E0E0F0E040CFE0E0F0E0EACFE0E0F0E01C
:100C600061CFC880D12C888190E09C01220F331F76
:100C7000820F931F880F991F880F991F880F991F44
:100C8000B8018E0D9F1DB0D3883522E092076CF01D
:100C9000811544E09407C4F0E7EAF1E0EE0FFF1F8E
:100CA000EE59FB4F859194919ACFE0E0F0E0F6CFBA
:100CB000F801E059F1400FCFF801E855F24032CF8A
:100CC000FC01E059F140B4CFFC01E855F240E6CF19
:100CD0001F920F920FB60F92112400000F900FBEBB
:100CE0000F901F901895FC01108211820895FC014D
:100CF00091819F5F918308950F93FC0176836583B3
:100D0000548343833283218307832781A581B6815E
:100D10004C9181E090E0BC0102C0660F771F2A95DC
:100D2000E2F79B01242B2C933781A381B4812C9172
:100D300001C0880F3A95EAF7822B8C9383E0808379
:100D4000108611860F910895FC0190819330D1F0A7
:100D500030F0943011F0953051F56087089592305D
:100D600039F537810380F481E02D208181E090E026
:100D700002C0880F991F3A95E2F7662389F0822B0B
:100D80008083089537810380F481E02D208181E004
:100D900090E002C0880F991F3A95E2F7662379F335
:100DA0008095909530E08223932380830895089561
:100DB0000895FC018081843031F18081853021F0FB
:100DC00081858F5F8187089591858085891728F1B6
:100DD00081858111F5CF8085882391F33781A381A7
:100DE000B4812C9181E090E002C0880F991F3A9560
:100DF000E2F78095909530E0822393238C93818550
:100E00008F5F8187089591858085891738F3818563
:100E10008111D6CF8085882399F23781A381B4814F
:100E20002C9181E090E001C0880F3A95EAF7822B7F
:100E30008C9381858F5F81870895FC0110820895CE
:100E4000EF92FF920F93CF93DF938AE090E0CBD2A3
:100E50007C0101E026E230E048E250E067E270E029
:100E60004BDFC6E0D2E0F982E8828AE090E0BBD2B4
:100E70007C0103E026E230E048E250E067E270E007
:100E80003BDFFB82EA828AE090E0ADD27C0105E0A4
:100E900026E230E048E250E067E270E02DDFFD82BC
:100EA000EC828AE090E09FD27C0107E026E230E00D
:100EB00048E250E067E270E01FDFFF82EE828AE0E6
:100EC00090E091D27C0106E020E230E042E250E086
:100ED00061E270E011DFF986E8868AE090E083D273
:100EE0007C0104E020E230E042E250E061E270E0A8
:100EF00003DFFB86EA868AE090E075D27C0102E09F
:100F000020E230E042E250E061E270E0F5DEFD8692
:100F1000EC868AE090E067D27C0100E020E230E0DD
:100F200042E250E061E270E0E7DEFF86EE868AE0B2
:100F300090E059D27C0126E230E048E250E067E2DE
:100F400070E0DADEF98AE88A8AE090E04CD27C012F
:100F500002E026E230E048E250E067E270E0CCDEFA
:100F6000FB8AEA8A8AE090E03ED27C0104E026E235
:100F700030E048E250E067E270E0BEDEFD8AEC8AD5
:100F80008AE090E030D27C0106E026E230E048E2E0
:100F900050E067E270E0B0DEFF8AEE8A8AE090E01F
:100FA00022D27C0107E020E230E042E250E061E240
:100FB00070E0A2DEF98EE88E8AE090E014D27C0127
:100FC00005E020E230E042E250E061E270E094DED1
:100FD000FB8EEA8E8AE090E006D27C0103E020E2FC
:100FE00030E042E250E061E270E086DEFD8EEC8EA1
:100FF0008AE090E0F8D17C0101E020E230E042E2BA
:1010000050E061E270E078DEFF8EEE8E8AE090E0E4
:10101000EAD17C0107E029E230E04BE250E06AE2ED
:1010200070E06ADEF9A2E8A28AE090E0DCD17C01FF
:1010300001E022E330E044E350E063E370E05CDE93
:10104000FBA2EAA28AE090E0CED17C0107E029E091
:1010500031E04BE051E06AE071E04EDEFDA2ECA22F
:101060008AE090E0C0D17C0105E029E031E04BE06E
:1010700051E06AE071E040DEFFA2EEA28AE090E07B
:10108000B2D17C0103E029E031E04BE051E06AE0BD
:1010900071E032DEF9A6E8A68AE090E0A4D17C01F6
:1010A00001E029E031E04BE051E06AE071E024DE4C
:1010B000FBA6EAA68AE090E096D17C0103E023E259
:1010C00030E045E250E064E270E016DEFDA6ECA6FA
:1010D0008AE090E088D17C0101E023E230E045E243
:1010E00050E064E270E008DEFFA6EEA68AE090E041
:1010F0007AD17C0102E022E330E044E350E063E394
:1011000070E0FADDF9AAE8AA8AE090E06CD17C01EF
:1011100000E022E330E044E350E063E370E0ECDD24
:10112000FBAAEAAA8AE090E05ED17C0106E029E011
:1011300031E04BE051E06AE071E0DEDDFDAAECAAAF
:101140008AE090E050D17C0104E029E031E04BE0FE
:1011500051E06AE071E0D0DDFFAAEEAA8AE090E0FB
:1011600042D17C0102E029E031E04BE051E06AE04D
:1011700071E0C2DDF9AEE8AE8AE090E034D17C01E6
:1011800000E029E031E04BE051E06AE071E0B4DDDD
:10119000FBAEEAAE8AE090E026D17C0102E023E2D9
:1011A00030E045E250E064E270E0A6DDFDAEECAE7A
:1011B0008AE090E018D1EC0100E023E230E045E263
:1011C00050E064E270E098DDD0934502C0934402A1
:1011D0008AE090E008D1EC0107E023E230E045E24C
:1011E00050E064E270E088DDD0934702C09346028D
:1011F0008AE090E0F8D0EC0106E023E230E045E23E
:1012000050E064E270E078DDD0934902C093480278
:101210008AE090E0E8D0EC0105E023E230E045E22E
:1012200050E064E270E068DDD0934B02C0934A0264
:101230008AE090E0D8D0EC0104E023E230E045E21F
:1012400050E064E270E058DDD0934D02C0934C0250
:101250008AE090E0C8D0EC0106E020E031E042E016
:1012600051E061E071E048DDD0934F02C0934E023F
:101270008AE090E0B8D0EC0105E020E031E042E007
:1012800051E061E071E038DDD0935102C09350022B
:101290008AE090E0A8D0EC0104E020E031E042E0F8
:1012A00051E061E071E028DDD0935302C093520217
:1012B0008AE090E098D0EC0103E020E031E042E0E9
:1012C00051E061E071E018DDD0935502C093540203
:1012D000DF91CF910F91FF90EF90089514BE0FB65C
:1012E000F894A895809160008861809360001092C6
:1012F00060000FBE279AA4DD60E0809146029091C5
:10130000470222DDFFCF1F920F920FB60F921124DA
:101310000BB60F922F933F934F935F936F937F93EF
:101320008F939F93AF93BF93CF93DF93EF93FF93ED
:10133000C6E0D2E0899199913CDD82E0C635D807BC
:10134000C9F7FF91EF91DF91CF91BF91AF919F913D
:101350008F917F916F915F914F913F912F910F905E
:101360000BBE0F900FBE0F901F9018951F920F92FB
:101370000FB60F9211240BB60F922F933F934F93FA
:101380005F936F937F938F939F93AF93BF93EF93ED
:10139000FF9388E592E02BDBFF91EF91BF91AF9136
:1013A0009F918F917F916F915F914F913F912F917D
:1013B0000F900BBE0F900FBE0F901F90189588E5F1
:1013C00092E07DDA86E592E08ECCCF93DF93C0EC9D
:1013D000D3E0CE0143D1689782E0C034D807C9F783
:1013E000DF91CF910895ABC1CF92DF92EF92FF9240
:1013F000CF93DF93FC01A689B789C689D7898A89EB
:101400009B8955969C938E935497A689B789C689D4
:10141000D7898889998953969C938E935297A689E8
:10142000B789C689D7898E859F8551969C938E935F
:101430005097A689B789C689D7898C859D851F96BF
:101440009C938E931E97A689B789C689D7898A856A
:101450009B851D969C938E931C97A689B789C689F8
:10146000D789888599851B969C938E931A97A68910
:10147000B789C689D7898E819F8119969C938E934F
:101480001897A689B789C689D7898C819D811796B7
:101490009C938E931697A689B789C689D7898A8126
:1014A0009B8115969C938E931497A689B789C689BC
:1014B000D7898881998113969C938E931297A689D8
:1014C000B7896D937C9320813181A689B7896D910D
:1014D0007C91C281D38186899789DC0112964D91D6
:1014E0005C911397DB0110D16B017C019E01DA0145
:1014F0000BD1C60ED71EE81EF91E24813581A689A0
:10150000B78914960D90BC91A02DFED0C60ED71EA3
:10151000E81EF91E26813781A689B78916960D9097
:10152000BC91A02DF1D0C60ED71EE81EF91E208555
:101530003185A689B78918960D90BC91A02DE4D06D
:10154000C60ED71EE81EF91E22853385A689B789E7
:101550001A960D90BC91A02DD7D0C60ED71EE81EAE
:10156000F91E24853585A689B7891C960D90BC91F6
:10157000A02DCAD0C60ED71EE81EF91E26853785B7
:10158000A689B7891E960D90BC91A02DBDD0C60E20
:10159000D71EE81EF91E20893189A689B789509681
:1015A0000D90BC91A02DB0D0C60ED71EE81EF91E1E
:1015B00022893389A689B78952960D90BC91A02DB6
:1015C000A3D0C60ED71EE81EF91E248935890688C9
:1015D000F789E02DA489B58997D0DC01CB018C0D6A
:1015E0009D1DAE1DBF1D22E1B595A79597958795C9
:1015F0002A95D1F7DF91CF91FF90EF90DF90CF90B8
:101600000895CF93DF93EC018CEF98E5998388835D
:101610002AE63BE53B832A8348E55DE55D834C8311
:101620006CEB7EE57F836E83E5E9FFE5F987E8876C
:10163000ADEDBFE5BB87AA87FD87EC877F876E8707
:10164000598B488B3B8B2A8B9D8B8C8B86E190E052
:1016500076D09F8B8E8BDF91CF910895FC01868988
:10166000978902C11F920F920FB60F9211240BB6E9
:101670000F922F933F934F935F936F937F938F932B
:101680009F93AF93BF93EF93FF939091C600E09128
:101690002A04F0E0E55DFB4F908380912A048F5F80
:1016A00080932A04923199F0FF91EF91BF91AF910D
:1016B0009F918F917F916F915F914F913F912F916A
:1016C0000F900BBE0F900FBE0F901F90189586E5E0
:1016D00092E00DDBE9CF1F920F920FB60F9211240B
:1016E0008F938091CE008F910F900FBE0F901F901F
:1016F000189589E294E0A1CBEE0FFF1F881F8BBFE6
:101700000790F691E02D199405D0332312F48A1B2B
:101710009B0B10C0A29FB001B39FC001A39F700D8F
:10172000811D1124911DB29F700D811D1124911DE9
:101730000895F0DFB7FF0895821B930B0895CF93B0
:10174000DF938230910510F482E090E0E0912D0566
:10175000F0912E0520E030E0C0E0D0E0309711F1AC
:101760004081518148175907C0F04817590761F463
:1017700082819381209719F09B838A832BC0909359
:101780002E0580932D0526C02115310519F042172D
:10179000530718F49A01BE01DF01EF010280F381C3
:1017A000E02DDCCF2115310509F1281B390B243040
:1017B000310590F412968D919C91139761157105E6
:1017C00021F0FB019383828304C090932E058093C4
:1017D0002D05FD01329644C0FD01E20FF31F8193F8
:1017E0009193225031092D933C933AC020912B05BF
:1017F00030912C05232B41F42091020230910302F9
:1018000030932C0520932B0520910002309101028A
:101810002115310541F42DB73EB740910402509196
:101820000502241B350BE0912B05F0912C05E217E6
:10183000F307A0F42E1B3F0B2817390778F0AC01F3
:101840004E5F5F4F2417350748F04E0F5F1F5093D0
:101850002C0540932B058193919302C0E0E0F0E0CA
:10186000CF01DF91CF9108950F931F93CF93DF9313
:10187000009709F48CC0FC01329713821282009108
:101880002D0510912E050115110581F4208131815E
:10189000820F931F20912B0530912C0528173907B3
:1018A00079F5F0932C05E0932B0571C0D80140E049
:1018B00050E0AE17BF0750F412962D913C9113974C
:1018C000AD012115310509F1D901F3CF9D01DA01EF
:1018D0003383228360817181860F971F821793075C
:1018E00069F4EC0128813981260F371F2E5F3F4FA5
:1018F000318320838A819B8193838283452B29F4C2
:10190000F0932E05E0932D0542C01396FC93EE93C1
:101910001297ED01499159919E01240F351FE2174D
:10192000F30771F480819181840F951F02961196BF
:101930009C938E938281938113969C938E9312979E
:10194000E0E0F0E0D80112968D919C9113970097FA
:1019500019F0F8018C01F6CF8D919C9198012E5FC2
:101960003F4F820F931F20912B0530912C05281794
:10197000390769F4309729F410922E0510922D053D
:1019800002C01382128210932C0500932B05DF9165
:10199000CF911F910F91089514E0CEE2D4E000E0C2
:1019A00005C0802FFE01A8DE2196011DCF32D10790
:0A19B00080E00807B1F7F894FFCFBC
:0619BA0000002F052000D3
:00000001FF
