:10000000DBC3000009C4000007C4000005C40000F1
:1000100003C4000001C40000FFC30000FDC30000D2
:10002000FBC30000F9C30000F7C30000F5C30000E4
:10003000F3C30000F1C30000EFC30000EDC30000F4
:10004000EBC30000E9C3000041C60000E5C30000A7
:10005000E3C30000E1C30000DFC30000DDC3000014
:10006000DBC300000C94FD0DD7C30000D5C3000016
:10007000D3C300000C944D0CCFC30000CDC30000CF
:100080000C941A0CC9C30000C7C30000C5C300000C
:100090000C94360EC1C30000BFC30000BDC30000F6
:1000A000BBC30000B9C30000B7C30000B5C3000064
:1000B000B3C30000B1C30000AFC30000ADC3000074
:1000C000ABC30000A9C30000A7C30000A5C3000084
:1000D000A3C30000A1C300009FC300009DC3000094
:1000E0009BC300007A05760572056E056A056605F4
:1000F000620585057A05760572056E056A05660551
:1001000062057E05EAFFEAFFEAFFEBFFEBFFEBFF8C
:10011000ECFFECFFECFFEDFFEDFFEDFFEEFFEEFF80
:10012000EEFFEFFFEFFFEFFFF0FFF0FFF0FFF1FF5B
:10013000F1FFF1FFF2FFF2FFF2FFF3FFF3FFF4FF35
:10014000F4FFF4FFF5FFF5FFF5FFF6FFF6FFF6FF0E
:10015000F7FFF7FFF7FFF8FFF8FFF8FFF9FFF9FFE8
:10016000F9FFFAFFFAFFFBFFFBFFFBFFFCFFFCFFC1
:10017000FCFFFDFFFDFFFDFFFEFFFEFFFFFFFFFF9A
:10018000FFFF00000000000001000100010002006C
:100190000200030003000300040004000400050043
:1001A000050005000600060007000700070008001C
:1001B00008000800090009000A000A000A000B00F4
:1001C0000B000B000C000C000D000D000D000E00CC
:1001D0000E000F000F000F001000100010001100A3
:1001E000110012001200120013001300140014007A
:1001F0001400150015001500160016001700170052
:100200001700180018001900190019001A001A0028
:100210001B001B001B001C001C001D001D001D00FE
:100220001E001E001F001F001F00200020002100D4
:1002300021002200220022002300230024002400A9
:100240002400250025002600260026002700270080
:10025000280028002900290029002A002A002B0054
:100260002B002B002C002C002D002D002E002E002A
:100270002E002F002F0030003000310031003100FF
:1002800032003200330033003400340034003500D3
:1002900035003600360037003700380038003800A7
:1002A000390039003A003A003B003B003C003C007A
:1002B0003C003D003D003E003E003F003F0040004E
:1002C0004000400041004100420042004300430022
:1002D00044004400450045004600460046004700F3
:1002E000470048004800490049004A004A004B00C6
:1002F0004B004C004C004C004D004D004E004E0099
:100300004F004F0050005000510051005200520069
:100310005300530054005400550055005600560039
:1003200057005700570058005800590059005A000C
:100330005A005B005B005C005C005D005D005E00DD
:100340005E005F005F0060006000610061006200AD
:10035000620063006300640064006500650066007D
:1003600066006700670068006800690069006A004D
:100370006B006B006C006C006D006D006E006E0019
:100380006F006F00700070007100710072007200E9
:1003900073007300740074007500760076007700B7
:1003A000770078007800790079007A007A007B0085
:1003B0007B007C007D007D007E007E007F007F0052
:1003C000800080008100810082008300830084001F
:1003D00084008500850086008600870088008800EC
:1003E000890089008A008A008B008C008C008D00B7
:1003F0008D008E008E008F00900090009100910083
:10040000920092009300940094009500950096004D
:100410009700970098009800990099009A009B0017
:100420009B009C009C009D009E009E009F009F00E2
:10043000A000A100A100A200A200A300A400A400AB
:10044000A500A500A600A700A700A800A900A90074
:10045000AA00AA00AB00AC00AC00AD00AE00AE003C
:10046000AF00FBFFFBFFFBFFFBFFFBFFFBFFFBFF07
:10047000FBFFFBFFFCFFFCFFFCFFFCFFFCFFFCFFA6
:10048000FCFFFCFFFCFFFDFFFDFFFDFFFDFFFDFF8F
:10049000FDFFFDFFFDFFFEFFFEFFFEFFFEFFFEFF77
:1004A000FEFFFEFFFEFFFFFFFFFFFFFFFFFFFFFF5F
:1004B000FFFFFFFFFFFF0000000000000000000042
:1004C0000000000001000100010001000100010026
:1004D000010002000200020002000200020002000D
:1004E00003000300030003000300030003000400F3
:1004F00004000400040004000400050005000500D9
:1005000005000500050006000600060006000600BE
:1005100006000700070007000700070007000800A3
:100520000800080008000800090009000900090087
:10053000090009000A000A000A000A000A000B006C
:100540000B000B000B000B000C000C000C000C004F
:100550000C000D000D000D000D000D000E000E0032
:100560000E000E000E000F000F000F000F000F0016
:1005700010001000100010001100110011001100F7
:1005800011001200120012001200120013001300DA
:1005900013001300140014001400140015001500BB
:1005A000150015001500160016001600160017009D
:1005B000170017001700180018001800180019007D
:1005C0001900190019001A001A001A001A001B005D
:1005D0001B001B001B001C001C001C001C001D003D
:1005E0001D001D001D001E001E001E001E001F001D
:1005F0001F001F00200020002000200021002100FB
:1006000021002100220022002200230023002300D9
:1006100023002400240024002400250025002500B8
:100620002600260026002600270027002700280095
:100630002800280029002900290029002A002A0072
:100640002A002B002B002B002B002C002C002C0050
:100650002D002D002D002E002E002E002F002F002B
:100660002F00300030003000300031003100310008
:1006700032003200320033003300330034003400E3
:1006800034003500350035003600360036003700BE
:100690003700370038003800380039003900390099
:1006A0003A003A003A003B003B003B003C003C0073
:1006B0003C003D003D003D003E003E003E003F004E
:1006C0003F00400040004000410041004100420026
:1006D00042004200430043004400440044004500FF
:1006E00045004500460046004600470047004800D8
:1006F000480048004900490049004A004A004B00B0
:100700004B004B004C004C004C004D004D004E0087
:100710004E004E004F004F0050005000500051005E
:100720005100520052005200530053005400540034
:10073000540055005500560056005600570057000B
:10074000580058005800590059005A005A005A00E1
:100750005B005B005C005C005D005D005D005E00B6
:100760005E005F005F005F0060006000610061008C
:100770006200620062006300630064006400650060
:100780006500650066006600670067006800680035
:100790006900690069006A006A006B006B006C0008
:1007A0006C006D006D006D006E006E006F006F00DC
:1007B00070008F0C710E960C11241FBECFEFD1E28A
:1007C000DEBFCDBF00E00CBF25E0A6E0B2E001C077
:1007D0001D92AF32B207E1F712E0A0E0B2E0EAEA20
:1007E000FFE100E00BBF02C007900D92A630B107F9
:1007F000D9F713E0CBEDD3E000E006C02197010963
:10080000802FFE010E94740EC93DD10780E00807C9
:10081000A9F7E1D70C94C40FF3CBEF92FF920F939B
:100820001F93CF93DF938C01EC017C0180E8E81AE1
:100830008EEFF80ACE010E94B20D6896CE15DF0544
:10084000C9F7F801E057FE4F81E0808370968083FE
:1008500088833F97808370968083B097808371965A
:10086000808370968083B097808371968083709622
:100870008083B09780837196808370968083B097D1
:1008800080837196808370968083B0978083719601
:10089000808370968083B0978083719680837096F2
:1008A0008083B09780837196808370968083B097A1
:1008B00080837196808370968083B09780837196D1
:1008C000808370968083B0978083719680837096C2
:1008D0008083B09780837196808370968083B09771
:1008E00080837196808370968083B09780837196A1
:1008F000808370968083B097808371968083709692
:100900008083B097808380EC80937C008DEA809315
:100910007A0085E080937B00B196108289E0809315
:10092000810084E080936F0081E393E290938900DB
:10093000809388008FEF80937E0080937D00DF910D
:10094000CF911F910F91FF90EF900895CF92DF927A
:10095000EF92FF920F931F93CF93DF939C01EC01D3
:10096000C055DE4F888190E080319105C0F100E0F4
:1009700010E08881F901E80FF11DE056FE4F8081FB
:100980008823C1F179018881F901E80FF11DE05751
:10099000FE4F8081882309F4BFC08881F901E80FE8
:1009A000F11DE058FE4F8081882309F4D3C088816F
:1009B000F701E80FF11DE058FE4F8081813009F406
:1009C00000C188818F3008F46DC01882DF91CF910B
:1009D0001F910F91FF90EF90DF90CF900895FC0151
:1009E00000917800109179008827EE58FF4F8F4FC3
:1009F0000C94740E8881F901E80FF11DE057FE4F49
:100A00008081882309F452C08881F901E80FF11D23
:100A1000E058FE4F808181111DC0888190E000392F
:100A200041E014070CF4C4C00F3343E014070CF486
:100A3000EFC0EEEAF1E0EE0FFF1FEC5FFE4F4591D5
:100A40005491880F991F820F931FFC01EF54FE4FA2
:100A5000518340838881F901E80FF11DE058FE4F72
:100A60008081813009F0ADCF888190E0083542E087
:100A700014070CF4A3C0011544E014070CF4CCC017
:100A8000E7EAF1E0EE0FFF1FEE59FB4F459154915D
:100A9000880F991F280F391FF901EF54FE4F51831A
:100AA00040838FCF88818F5F888390CFE881F0E08B
:100AB000EE0FFF1F2E0F3F1FF901EF54FE4F118362
:100AC00000837FCF87EC80937C0053CF86EC8093AC
:100AD0007C004FCF85EC80937C004BCF84EC8093DF
:100AE0007C0047CF83EC80937C0043CF82EC8093E3
:100AF0007C003FCF81EC80937C003BCF80EC8093E7
:100B00007C0085E080937B0034CF8DE080937B0078
:100B100080EC80937C002DCFC880D12C888190E020
:100B20009C01220F331F820F931F880F991F880F7C
:100B3000991F880F991FB8018E0D9F1D06D796012A
:100B4000220F331F2E0D3F1DF901EF54FE4F9183ED
:100B5000808337CFC880D12C888190E09C01220F00
:100B6000331F820F931F880F991F880F991F880FBB
:100B7000991FB8018E0D9F1DE8D6803921E092079C
:100B8000D4F08F3343E094070CF44AC0EEEAF1E06E
:100B9000EE0FFF1FEC5FFE4F85919491CC0CDD1C96
:100BA000CE0CDF1CF601EF54FE4F91838083FFCE05
:100BB000E0E0F0E040CFE0E0F0E0EACFE0E0F0E0BD
:100BC00061CFC880D12C888190E09C01220F331F17
:100BD000820F931F880F991F880F991F880F991FE5
:100BE000B8018E0D9F1DB1D6883522E092076CF0BA
:100BF000811544E09407C4F0E7EAF1E0EE0FFF1F2F
:100C0000EE59FB4F859194919ACFE0E0F0E0F6CF5A
:100C1000F801E059F1400FCFF801E855F24032CF2A
:100C2000FC01E059F140B4CFFC01E855F240E6CFB9
:100C3000603158F470E0660F771F860F971FFC0134
:100C4000EF54FE4F8081918108958FEF9FEF0895BB
:100C5000603190F4860F911DFC01E056FE4F20811B
:100C60007097308131112260FC01E058FE4F808185
:100C7000880F880F822B089580E00895603120F559
:100C8000860F911DFC01E056FE4F40FD14C01082FE
:100C900041FF15C021E0FC01E057FE4F20834C705E
:100CA00050E05595479555954795FC01E058FE4F06
:100CB000408380E0089521E0208341FDEBCFFC01DB
:100CC000E057FE4F1082EBCF81E008951F920F9204
:100CD0000FB60F92112400000F900FBE0F901F90BF
:100CE000189598E088E10FB6F894A8958093600075
:100CF0000FBE909360000895CF93DF9300D000D093
:100D0000CDB7DEB783EF8983F1D5BE016E5F7F4F2C
:100D1000ACD182E18E8366E0CE010196B5D72696EE
:100D20000FB6F894DEBF0FBECDBFDF91CF9108950F
:100D3000CF93DF9300D01F92CDB7DEB78832B0F4E7
:100D400093E5980F9983E82FF0E0EE0FFF1FEA5F1D
:100D5000FD4F80819181C8D1BE016E5F7F4F76D1FA
:100D600082E18C8364E0CE0101968ED70F900F90C4
:100D70000F900F90DF91CF910895CF93DF9300D024
:100D800000D0CDB7DEB7803188F4682F83E1860FBD
:100D9000898388E592E04CDFBE016E5F7F4F65D1AD
:100DA00082E18E8366E0CE0101966ED726960FB65D
:100DB000F894DEBF0FBECDBFDF91CF910895CF93E2
:100DC000DF9300D01F92CDB7DEB78832B0F493EA3C
:100DD000980F9983E82FF0E0EE0FFF1FEA5FFD4FB9
:100DE0008081918154D2BE016E5F7F4F2FD182E10D
:100DF0008C8364E0CE01019647D70F900F900F903F
:100E00000F90DF91CF910895CF93DF9300D01F9281
:100E1000CDB7DEB7803188F4682F83E3860F8983EE
:100E200088E592E015DFBE016E5F7F4F0FD182E152
:100E30008C8364E0CE01019627D70F900F900F901E
:100E40000F90DF91CF910895EF92FF921F93CF9370
:100E5000DF9300D01F92CDB7DEB78832F8F4182F99
:100E6000E82EF12CC701880F991F9C012A5F3D4F86
:100E70007901F901808191816DD183E5810F8983A9
:100E8000F7018081918130D1BE016E5F7F4FDED04E
:100E900082E18C8364E0CE010196F6D60F900F902C
:100EA0000F900F90DF91CF911F91FF90EF900895D9
:100EB000EF92FF921F93CF93DF9300D01F92CDB795
:100EC000DEB78832F8F4182FE82EF12CC701880F0E
:100ED000991F9C012A5F3D4F7901F9018081918121
:100EE0006ED183EA810F8983F70180819181CFD10F
:100EF000BE016E5F7F4FAAD082E18C8364E0CE0199
:100F00000196C2D60F900F900F900F90DF91CF9166
:100F10001F91FF90EF9008951F93CF93DF9300D020
:100F20001F92CDB7DEB78031B8F4462F182F682F47
:100F300088E592E0A3DE83E3810F8983612F88E552
:100F400092E086DEBE016E5F7F4F80D082E18C83AF
:100F500064E0CE01019698D60F900F900F900F90FD
:100F6000DF91CF911F910895FC01108211820895A5
:100F7000CF93DF93FC012181211103C0DF91CF9139
:100F80000895EC01E081F0E0E55DFB4F8081988100
:100F90009F5F9883833130F4898181508983DF9109
:100FA000CF910895E881F0E0E55DFB4F608162310B
:100FB00091F0E881EF5FE883F0E0E55DFB4F908121
:100FC000923151F0E881EF5FE883F0E0E55DFB4F9F
:100FD0002081223119F160E098819F5F98838335E9
:100FE00038F48333B0F48332B8F28352C6DED4CF00
:100FF000833A50F08B3CE8F0833FF0F0833FF9F008
:10100000873F51F66EDEC8CF8B3768F483551CDFFF
:10101000C3CF833458F483537FDFBECFF0E19F9F6B
:10102000600D1124D9CF8B5783DEB6CF8354ECDE0D
:10103000B3CF835A3DDFB0CF8B5CC1DEADCF5CDE7A
:10104000ABCFFC0191819F5F91830895982F9F7092
:10105000FB01908390E0959587959595879595955B
:1010600087959595879581830895FB01282F2F708B
:1010700020839C013595279535952795359527959E
:10108000359527952F702183892F8F708283892F23
:1010900082958F70838308950F93FC017683658317
:1010A000548343833283218307832781A581B681BB
:1010B0004C9181E090E0BC0102C0660F771F2A9539
:1010C000E2F79B01242B2C933781A381B4812C91CF
:1010D00001C0880F3A95EAF7822B8C9383E08083D6
:1010E000108611860F910895FC019081923079F15C
:1010F00038F0943019F040F19530B9F480850895B6
:101100009923A9F0913089F4A181B2819C91278122
:10111000892F90E002C0959587952A95E2F7817016
:10112000992721E082278170089580E00895A181A8
:10113000B2819C912781892F90E002C09595879577
:101140002A95E2F781700895A381B481DFCFA3814E
:10115000B481EFCFFC0190819330D1F030F0943026
:1011600011F0953051F560870895923039F5378147
:101170000380F481E02D208181E090E002C0880F9F
:10118000991F3A95E2F7662389F0822B80830895B0
:1011900037810380F481E02D208181E090E002C05E
:1011A000880F991F3A95E2F7662379F38095909519
:1011B00030E0822393238083089508950895CF9388
:1011C000DF93FC0180818617D1F16230F1F1B0F03C
:1011D0006430C9F120F0653091F5118610862781C1
:1011E000A581B6814C9181E090E0EC0102C0CC0F6A
:1011F000DD1F2A95E2F79E01242B16C0662311F00D
:101200006130E9F42781A581B6814C9181E090E0BD
:10121000EC0102C0CC0FDD1F2A95E2F79E0120955C
:10122000309550E0242335232C933781A381B4815A
:101230002C9101C0880F3A95EAF7822B8C9360833A
:10124000DF91CF910895118610862781A581B681FF
:101250004C9181E090E0EC0102C0CC0FDD1F2A959B
:10126000E2F79E01242B2C933781A381B4812C912A
:1012700002C0880F991F3A95E2F78095909530E06B
:10128000822393238C936083DF91CF910895FC0197
:1012900080810895FC018081843031F18081853026
:1012A00021F081858F5F81870895918580858917D9
:1012B00028F181858111F5CF8085882391F33781CD
:1012C000A381B4812C9181E090E002C0880F991F26
:1012D0003A95E2F78095909530E0822393238C93A2
:1012E00081858F5F8187089591858085891738F37F
:1012F00081858111D6CF8085882399F23781A3819A
:10130000B4812C9181E090E001C0880F3A95EAF712
:10131000822B8C9381858F5F81870895FC011082D9
:101320000895FC018081882321F0000090819111B3
:10133000FCCF81E080830895FC0110820895EF9234
:10134000FF920F93CF93DF938AE090E0FDD27C0170
:1013500001E026E230E048E250E067E270E09CDE27
:10136000C6E0D2E0F982E8828AE090E0EDD27C012A
:1013700003E026E230E048E250E067E270E08CDE15
:10138000FB82EA828AE090E0DFD27C0105E026E27F
:1013900030E048E250E067E270E07EDEFD82EC8201
:1013A0008AE090E0D1D27C0107E026E230E048E21A
:1013B00050E067E270E070DEFF82EE828AE090E04B
:1013C000C3D27C0106E020E230E042E250E061E27C
:1013D00070E062DEF986E8868AE090E0B5D27C01B2
:1013E00004E020E230E042E250E061E270E054DEEE
:1013F000FB86EA868AE090E0A7D27C0102E020E248
:1014000030E042E250E061E270E046DEFD86EC86CC
:101410008AE090E099D27C0100E020E230E042E2F4
:1014200050E061E270E038DEFF86EE868AE090E010
:101430008BD27C0126E230E048E250E067E270E0C7
:101440002BDEF98AE88A8AE090E07ED27C0102E015
:1014500026E230E048E250E067E270E01DDEFB8A01
:10146000EA8A8AE090E070D27C0104E026E230E073
:1014700048E250E067E270E00FDEFD8AEC8A8AE025
:1014800090E062D27C0106E026E230E048E250E0E3
:1014900067E270E001DEFF8AEE8A8AE090E054D2D3
:1014A0007C0107E020E230E042E250E061E270E0DF
:1014B000F3DDF98EE88E8AE090E046D27C0105E00B
:1014C00020E230E042E250E061E270E0E5DDFB8ED8
:1014D000EA8E8AE090E038D27C0103E020E230E03E
:1014E00042E250E061E270E0D7DDFD8EEC8E8AE0F2
:1014F00090E02AD27C0101E020E230E042E250E0BC
:1015000061E270E0C9DDFF8EEE8E8AE090E01CD2D1
:101510007C0107E029E230E04BE250E06AE270E053
:10152000BBDDF9A2E8A28AE090E00ED27C0101E0E6
:1015300022E330E044E350E063E370E0ADDDFBA282
:10154000EAA28AE090E000D27C0107E029E031E0E5
:101550004BE051E06AE071E09FDDFDA2ECA28AE081
:1015600090E0F2D17C0105E029E031E04BE051E070
:101570006AE071E091DDFFA2EEA28AE090E0E4D1A2
:101580007C0103E029E031E04BE051E06AE071E0EA
:1015900083DDF9A6E8A68AE090E0D6D17C0101E0DF
:1015A00029E031E04BE051E06AE071E075DDFBA637
:1015B000EAA68AE090E0C8D17C0103E023E230E0B3
:1015C00045E250E064E270E067DDFDA6ECA68AE04B
:1015D00090E0BAD17C0101E023E230E045E250E046
:1015E00064E270E059DDFFA6EEA68AE090E0ACD19F
:1015F0007C0102E022E330E044E350E063E370E08A
:101600004BDDF9AAE8AA8AE090E09ED17C0100E0D7
:1016100022E330E044E350E063E370E03DDDFBAA09
:10162000EAAA8AE090E090D17C0106E029E031E06E
:101630004BE051E06AE071E02FDDFDAAECAA8AE000
:1016400090E082D17C0104E029E031E04BE051E000
:101650006AE071E021DDFFAAEEAA8AE090E074D191
:101660007C0102E029E031E04BE051E06AE071E00A
:1016700013DDF9AEE8AE8AE090E066D17C0100E0CF
:1016800029E031E04BE051E06AE071E005DDFBAEBE
:10169000EAAE8AE090E058D17C0102E023E230E03B
:1016A00045E250E064E270E0F7DCFDAEECAE8AE0CB
:1016B00090E04AD1EC0100E023E230E045E250E066
:1016C00064E270E0E9DCD0934502C09344028AE012
:1016D00090E03AD1EC0105E020E031E042E051E059
:1016E00061E071E0D9DCD0934702C09346028AE002
:1016F00090E02AD1EC0106E020E031E042E051E048
:1017000061E071E0C9DCD0934902C09348028AE0ED
:1017100090E01AD1EC0104E02CE230E04EE250E01F
:101720006DE270E0B9DCD0934B02C0934A028AE0CC
:1017300090E00AD1EC0105E02CE230E04EE250E00E
:101740006DE270E0A9DCD0934D02C0934C028AE0B8
:1017500090E0FAD0EC0122E330E044E350E063E3B0
:1017600070E09ADCD0934F02C0934E028AE090E082
:10177000EBD0EC0103E02CE230E04EE250E06DE211
:1017800070E08ADCD0935102C09350028AE090E06E
:10179000DBD0EC0120E031E042E051E061E071E0BB
:1017A0007BDCD0935302C09352028AE090E0CCD00D
:1017B000EC0104E020E031E042E051E061E071E062
:1017C0006BDCD0935502C0935402DF91CF910F91FF
:1017D000FF90EF900895CF93DF931F921F92CDB7A4
:1017E000DEB714BE0FB6F894A895809160008861AA
:1017F00080936000109260000FBE279AA0DD80E702
:1018000092E0909399008093980082E08093710019
:101810008CE080939100D7D1E4D187EF898382E176
:101820008A8362E0CE0101962FD2789486E592E019
:101830009FDBFCCF1F920F920FB60F9211240BB6B5
:101840000F922F933F934F935F936F937F938F9359
:101850009F93AF93BF93CF93DF93EF93FF93C6E034
:10186000D2E08991999116DD82E0C635D807C9F793
:10187000FF91EF91DF91CF91BF91AF919F918F91A8
:101880007F916F915F914F913F912F910F900BBE80
:101890000F900FBE0F901F9018951F920F920FB6CA
:1018A0000F9211240BB60F922F933F934F935F9398
:1018B0006F937F938F939F93AF93BF93EF93FF9318
:1018C00088E592E043D8FF91EF91BF91AF919F914E
:1018D0008F917F916F915F914F913F912F910F90D9
:1018E0000BBE0F900FBE0F901F901895CF93DF93F4
:1018F0001F921F92CDB7DEB780912B0590912C05DA
:10190000009751F09C01CE010196821B930B0F9022
:101910000F90DF91CF9108952FE235E0F4CF88E565
:1019200092E00E940D0486E592E01ECBCF93DF93F8
:10193000C0ECD3E0CE0143D1689782E0C034D80731
:10194000C9F7DF91CF910895F2C1CF92DF92EF9264
:10195000FF92CF93DF93FC01A689B789C689D78907
:101960008A899B8955969C938E935497A689B789AB
:10197000C689D7898889998953969C938E93529763
:10198000A689B789C689D7898E859F8551969C93EC
:101990008E935097A689B789C689D7898C859D85EE
:1019A0001F969C938E931E97A689B789C689D7895F
:1019B0008A859B851D969C938E931C97A689B789D3
:1019C000C689D789888599851B969C938E931A978B
:1019D000A689B789C689D7898E819F8119969C93DC
:1019E0008E931897A689B789C689D7898C819D81DE
:1019F00017969C938E931697A689B789C689D7891F
:101A00008A819B8115969C938E931497A689B7899A
:101A1000C689D7898881998113969C938E93129752
:101A2000A689B7896D937C9320813181A689B78976
:101A30006D917C91C281D38186899789DC01129650
:101A40004D915C911397DB0157D16B017C019E0195
:101A5000DA0152D1C60ED71EE81EF91E2481358147
:101A6000A689B78914960D90BC91A02D45D1C60EBC
:101A7000D71EE81EF91E26813781A689B7891696DA
:101A80000D90BC91A02D38D1C60ED71EE81EF91EB0
:101A900020853185A689B78918960D90BC91A02D17
:101AA0002BD1C60ED71EE81EF91E22853385A689C6
:101AB000B7891A960D90BC91A02D1ED1C60ED71EC7
:101AC000E81EF91E24853585A689B7891C960D90D8
:101AD000BC91A02D11D1C60ED71EE81EF91E268579
:101AE0003785A689B7891E960D90BC91A02D04D18B
:101AF000C60ED71EE81EF91E20893189A689B7892E
:101B000050960D90BC91A02DF7D0C60ED71EE81EA2
:101B1000F91E22893389A689B78952960D90BC9106
:101B2000A02DEAD0C60ED71EE81EF91E24893589DD
:101B30000688F789E02DA489B589DED0DC01CB01C8
:101B40008C0D9D1DAE1DBF1D22E1B595A7959795E6
:101B500087952A95D1F7DF91CF91FF90EF90DF9095
:101B6000CF900895CF93DF93EC018CEF98E59983A4
:101B700088832AE63BE53B832A8348E55DE55D8370
:101B80004C836CEB7EE57F836E83E5E9FFE5F987A7
:101B9000E887ADEDBFE5BB87AA87FD87EC877F8728
:101BA0006E87598B488B3B8B2A8B9D8B8C8B86E168
:101BB00090E0BDD09F8B8E8BDF91CF910895FC017B
:101BC0008689978949C110922A041092C50080E144
:101BD0008093C40088E98093C10086E08093C200AE
:101BE00008951092CD0083E38093CC0088E9809320
:101BF000C90086E08093CA0008951F920F920FB625
:101C00000F9211240BB60F922F933F934F935F9334
:101C10006F937F938F939F93AF93BF93EF93FF93B4
:101C20009091C600E0912A04F0E0E55DFB4F9083BF
:101C300080912A048F5F80932A04923199F0FF915A
:101C4000EF91BF91AF919F918F917F916F915F9134
:101C50004F913F912F910F900BBE0F900FBE0F90A1
:101C60001F90189586E592E0ECD9E9CF1F920F926C
:101C70000FB60F9211248F938091CE008F910F9009
:101C80000FBE0F901F9018950F931F93CF93DF9364
:101C90001F92CDB7DEB7182F092F89E294E0698330
:101CA00040DB69816623A9F0E12FF02F6150262FD8
:101CB00030E02F5F3F4F2E0F3F1F01C0000080918B
:101CC000C00085FFFBCF81918093C600E217F30728
:101CD000B1F789E294E00F90DF91CF911F910F91BE
:101CE0002BCB89E294E01ACBEE0FFF1F881F8BBF2E
:101CF0000790F691E02D199405D0332312F48A1B36
:101D00009B0B10C0A29FB001B39FC001A39F700D99
:101D1000811D1124911DB29F700D811D1124911DF3
:101D20000895F0DFB7FF0895821B930B0895CF93BA
:101D3000DF938230910510F482E090E0E0912D0570
:101D4000F0912E0520E030E0C0E0D0E0309711F1B6
:101D50004081518148175907C0F04817590761F46D
:101D600082819381209719F09B838A832BC0909363
:101D70002E0580932D0526C02115310519F0421737
:101D8000530718F49A01BE01DF01EF010280F381CD
:101D9000E02DDCCF2115310509F1281B390B24304A
:101DA000310590F412968D919C91139761157105F0
:101DB00021F0FB019383828304C090932E058093CE
:101DC0002D05FD01329644C0FD01E20FF31F819302
:101DD0009193225031092D933C933AC020912B05C9
:101DE00030912C05232B41F4209102023091030203
:101DF00030932C0520932B05209100023091010295
:101E00002115310541F42DB73EB7409104025091A0
:101E10000502241B350BE0912B05F0912C05E217F0
:101E2000F307A0F42E1B3F0B2817390778F0AC01FD
:101E30004E5F5F4F2417350748F04E0F5F1F5093DA
:101E40002C0540932B058193919302C0E0E0F0E0D4
:101E5000CF01DF91CF9108950F931F93CF93DF931D
:101E6000009709F48CC0FC01329713821282009112
:101E70002D0510912E050115110581F42081318168
:101E8000820F931F20912B0530912C0528173907BD
:101E900079F5F0932C05E0932B0571C0D80140E053
:101EA00050E0AE17BF0750F412962D913C91139756
:101EB000AD012115310509F1D901F3CF9D01DA01F9
:101EC0003383228360817181860F971F8217930766
:101ED00069F4EC0128813981260F371F2E5F3F4FAF
:101EE000318320838A819B8193838283452B29F4CC
:101EF000F0932E05E0932D0542C01396FC93EE93CC
:101F00001297ED01499159919E01240F351FE21757
:101F1000F30771F480819181840F951F02961196C9
:101F20009C938E938281938113969C938E931297A8
:101F3000E0E0F0E0D80112968D919C911397009704
:101F400019F0F8018C01F6CF8D919C9198012E5FCC
:101F50003F4F820F931F20912B0530912C0528179E
:101F6000390769F4309729F410922E0510922D0547
:101F700002C01382128210932C0500932B05DF916F
:101F8000CF911F910F91089513E0CBEDD3E000E0C6
:101F900005C0802FFE01A8DE2196011DCC3DD10792
:0A1FA00080E00807B1F7F894FFCFC6
:061FAA0000002F052000DD
:00000001FF
