:10000000DBC300000AC4000008C4000006C40000EE
:1000100004C4000002C4000000C40000FEC30000CD
:10002000FCC30000FAC30000F8C30000F6C30000E0
:10003000F4C30000F2C30000F0C30000EEC30000F0
:10004000ECC30000EAC3000042C60000E6C30000A3
:10005000E4C30000E2C30000E0C30000DEC3000010
:10006000DCC300000C94050ED8C30000D6C300000A
:10007000D4C300000C94570CD0C30000CEC30000C2
:100080000C94240CCAC30000C8C30000C6C30000FF
:100090000C943E0EC2C30000C0C30000BEC30000EB
:1000A000BCC30000BAC30000B8C30000B6C3000060
:1000B000B4C30000B2C30000B0C30000AEC3000070
:1000C000ACC30000AAC30000A8C30000A6C3000080
:1000D000A4C30000A2C30000A0C300009EC3000090
:1000E0009CC300007B05770573056F056B056705ED
:1000F000630586057B05770573056F056B05670549
:1001000063057F05EAFFEAFFEAFFEBFFEBFFEBFF8A
:10011000ECFFECFFECFFEDFFEDFFEDFFEEFFEEFF80
:10012000EEFFEFFFEFFFEFFFF0FFF0FFF0FFF1FF5B
:10013000F1FFF1FFF2FFF2FFF2FFF3FFF3FFF4FF35
:10014000F4FFF4FFF5FFF5FFF5FFF6FFF6FFF6FF0E
:10015000F7FFF7FFF7FFF8FFF8FFF8FFF9FFF9FFE8
:10016000F9FFFAFFFAFFFBFFFBFFFBFFFCFFFCFFC1
:10017000FCFFFDFFFDFFFDFFFEFFFEFFFFFFFFFF9A
:10018000FFFF00000000000001000100010002006C
:100190000200030003000300040004000400050043
:1001A000050005000600060007000700070008001C
:1001B00008000800090009000A000A000A000B00F4
:1001C0000B000B000C000C000D000D000D000E00CC
:1001D0000E000F000F000F001000100010001100A3
:1001E000110012001200120013001300140014007A
:1001F0001400150015001500160016001700170052
:100200001700180018001900190019001A001A0028
:100210001B001B001B001C001C001D001D001D00FE
:100220001E001E001F001F001F00200020002100D4
:1002300021002200220022002300230024002400A9
:100240002400250025002600260026002700270080
:10025000280028002900290029002A002A002B0054
:100260002B002B002C002C002D002D002E002E002A
:100270002E002F002F0030003000310031003100FF
:1002800032003200330033003400340034003500D3
:1002900035003600360037003700380038003800A7
:1002A000390039003A003A003B003B003C003C007A
:1002B0003C003D003D003E003E003F003F0040004E
:1002C0004000400041004100420042004300430022
:1002D00044004400450045004600460046004700F3
:1002E000470048004800490049004A004A004B00C6
:1002F0004B004C004C004C004D004D004E004E0099
:100300004F004F0050005000510051005200520069
:100310005300530054005400550055005600560039
:1003200057005700570058005800590059005A000C
:100330005A005B005B005C005C005D005D005E00DD
:100340005E005F005F0060006000610061006200AD
:10035000620063006300640064006500650066007D
:1003600066006700670068006800690069006A004D
:100370006B006B006C006C006D006D006E006E0019
:100380006F006F00700070007100710072007200E9
:1003900073007300740074007500760076007700B7
:1003A000770078007800790079007A007A007B0085
:1003B0007B007C007D007D007E007E007F007F0052
:1003C000800080008100810082008300830084001F
:1003D00084008500850086008600870088008800EC
:1003E000890089008A008A008B008C008C008D00B7
:1003F0008D008E008E008F00900090009100910083
:10040000920092009300940094009500950096004D
:100410009700970098009800990099009A009B0017
:100420009B009C009C009D009E009E009F009F00E2
:10043000A000A100A100A200A200A300A400A400AB
:10044000A500A500A600A700A700A800A900A90074
:10045000AA00AA00AB00AC00AC00AD00AE00AE003C
:10046000AF00FBFFFBFFFBFFFBFFFBFFFBFFFBFF07
:10047000FBFFFBFFFCFFFCFFFCFFFCFFFCFFFCFFA6
:10048000FCFFFCFFFCFFFDFFFDFFFDFFFDFFFDFF8F
:10049000FDFFFDFFFDFFFEFFFEFFFEFFFEFFFEFF77
:1004A000FEFFFEFFFEFFFFFFFFFFFFFFFFFFFFFF5F
:1004B000FFFFFFFFFFFF0000000000000000000042
:1004C0000000000001000100010001000100010026
:1004D000010002000200020002000200020002000D
:1004E00003000300030003000300030003000400F3
:1004F00004000400040004000400050005000500D9
:1005000005000500050006000600060006000600BE
:1005100006000700070007000700070007000800A3
:100520000800080008000800090009000900090087
:10053000090009000A000A000A000A000A000B006C
:100540000B000B000B000B000C000C000C000C004F
:100550000C000D000D000D000D000D000E000E0032
:100560000E000E000E000F000F000F000F000F0016
:1005700010001000100010001100110011001100F7
:1005800011001200120012001200120013001300DA
:1005900013001300140014001400140015001500BB
:1005A000150015001500160016001600160017009D
:1005B000170017001700180018001800180019007D
:1005C0001900190019001A001A001A001A001B005D
:1005D0001B001B001B001C001C001C001C001D003D
:1005E0001D001D001D001E001E001E001E001F001D
:1005F0001F001F00200020002000200021002100FB
:1006000021002100220022002200230023002300D9
:1006100023002400240024002400250025002500B8
:100620002600260026002600270027002700280095
:100630002800280029002900290029002A002A0072
:100640002A002B002B002B002B002C002C002C0050
:100650002D002D002D002E002E002E002F002F002B
:100660002F00300030003000300031003100310008
:1006700032003200320033003300330034003400E3
:1006800034003500350035003600360036003700BE
:100690003700370038003800380039003900390099
:1006A0003A003A003A003B003B003B003C003C0073
:1006B0003C003D003D003D003E003E003E003F004E
:1006C0003F00400040004000410041004100420026
:1006D00042004200430043004400440044004500FF
:1006E00045004500460046004600470047004800D8
:1006F000480048004900490049004A004A004B00B0
:100700004B004B004C004C004C004D004D004E0087
:100710004E004E004F004F0050005000500051005E
:100720005100520052005200530053005400540034
:10073000540055005500560056005600570057000B
:10074000580058005800590059005A005A005A00E1
:100750005B005B005C005C005D005D005D005E00B6
:100760005E005F005F005F0060006000610061008C
:100770006200620062006300630064006400650060
:100780006500650066006600670067006800680035
:100790006900690069006A006A006B006B006C0008
:1007A0006C006D006D006D006E006E006F006F00DC
:1007B0007000990C720EA00C11241FBECFEFD1E275
:1007C000DEBFCDBF00E00CBF25E0A6E0B2E001C077
:1007D0001D92AF32B207E1F712E0A0E0B2E0E4E927
:1007E000FFE100E00BBF02C007900D92A630B107F9
:1007F000D9F713E0CBEDD3E000E006C02197010963
:10080000802FFE010E94750EC93DD10780E00807C8
:10081000A9F70E940F0C0C94B90FF2CBEF92FF9244
:100820000F931F93CF93DF938C01EC017C0180E841
:10083000E81A8EEFF80ACE010E94BC0D6896CE151C
:10084000DF05C9F7F801E057FE4F81E0808370961D
:10085000808388833F97808370968083B09780835E
:100860007196808370968083B09780837196808321
:1008700070968083B0978083719680837096808312
:10088000B09780837196808370968083B0978083C1
:100890007196808370968083B097808371968083F1
:1008A00070968083B09780837196808370968083E2
:1008B000B09780837196808370968083B097808391
:1008C0007196808370968083B097808371968083C1
:1008D00070968083B09780837196808370968083B2
:1008E000B09780837196808370968083B097808361
:1008F0007196808370968083B09780837196808391
:1009000070968083B097808380EC80937C008DEA22
:1009100080937A0085E080937B00B196108289E015
:100920008093810084E080936F0081E393E2909351
:100930008900809388008FEF80937E0080937D00F4
:10094000DF91CF911F910F91FF90EF900895CF927B
:10095000DF92EF92FF920F931F93CF93DF939C014F
:10096000EC01C055DE4F888190E080319105C0F1E7
:1009700000E010E08881F901E80FF11DE056FE4F1C
:1009800080818823C1F179018881F901E80FF11D87
:10099000E057FE4F8081882309F4BFC08881F901A8
:1009A000E80FF11DE058FE4F8081882309F4D3C081
:1009B0008881F701E80FF11DE058FE4F80818130FA
:1009C00009F400C188818F3008F46DC01882DF916E
:1009D000CF911F910F91FF90EF90DF90CF900895EE
:1009E000FC0100917800109179008827EE58FF4FA4
:1009F0008F4F0C94750E8881F901E80FF11DE057B7
:100A0000FE4F8081882309F452C08881F901E80FE4
:100A1000F11DE058FE4F808181111DC0888190E05A
:100A2000003941E014070CF4C4C00F3343E014074D
:100A30000CF4EFC0EEEAF1E0EE0FFF1FEC5FFE4FAB
:100A400045915491FC01EE0FFF1FE20FF31FEF548D
:100A5000FE4F518340838881F901E80FF11DE05872
:100A6000FE4F8081813009F0ADCF888190E008355C
:100A700042E014070CF4A3C0011544E014070CF481
:100A8000CCC0E7EAF1E0EE0FFF1FEE59FB4F4591B6
:100A90005491880F991F280F391FF901EF54FE4F09
:100AA000518340838FCF88818F5F888390CFE88187
:100AB000F0E0EE0FFF1F2E0F3F1FF901EF54FE4F26
:100AC000118300837FCF87EC80937C0053CF86EC2B
:100AD00080937C004FCF85EC80937C004BCF84ECDF
:100AE00080937C0047CF83EC80937C0043CF82ECE3
:100AF00080937C003FCF81EC80937C003BCF80ECE7
:100B000080937C0085E080937B0034CF8DE08093E0
:100B10007B0080EC80937C002DCFC880D12C888115
:100B200090E09C01220F331F820F931F880F991FA3
:100B3000880F991F880F991FB8018E0D9F1D0FD721
:100B40009601220F331F2E0D3F1DF901EF54FE4F6A
:100B50009183808337CFC880D12C888190E09C011D
:100B6000220F331F820F931F880F991F880F991F21
:100B7000880F991FB8018E0D9F1DF1D6803921E095
:100B80009207D4F08F3343E094070CF44AC0EEEAA6
:100B9000F1E0EE0FFF1FEC5FFE4F85919491F6019F
:100BA000EE0FFF1FEE0DFF1DEF54FE4F918380836C
:100BB000FFCEE0E0F0E040CFE0E0F0E0EACFE0E0C0
:100BC000F0E061CFC880D12C888190E09C01220F99
:100BD000331F820F931F880F991F880F991F880F4B
:100BE000991FB8018E0D9F1DBAD6883522E0920755
:100BF0006CF0811544E09407C4F0E7EAF1E0EE0FF1
:100C0000FF1FEE59FB4F859194919ACFE0E0F0E001
:100C1000F6CFF801E059F1400FCFF801E855F24066
:100C200032CFFC01E059F140B4CFFC01E855F2406D
:100C3000E6CF603158F470E0660F771FFC01E60FD5
:100C4000F71FEF54FE4F8081918108958FEF9FEF42
:100C50000895603190F4860F911DFC01E056FE4F1F
:100C600020817097308131112260FC01E058FE4FE5
:100C70008081880F880F822B089580E0089560316D
:100C800020F5860F911DFC01E056FE4F40FD14C07B
:100C9000108241FF15C021E0FC01E057FE4F208388
:100CA0004C7050E05595479555954795FC01E05897
:100CB000FE4F408380E0089521E0208341FDEBCF8B
:100CC000FC01E057FE4F1082EBCF81E008951F92A8
:100CD0000F920FB60F92112400000F900FBE0F90CD
:100CE0001F901895CF93DF9300D000D0CDB7DEB71B
:100CF00083EF898305D6BE016E5F7F4FA0D182E16D
:100D00008E8366E0CE010196C7D726960FB6F8947B
:100D1000DEBF0FBECDBFDF91CF910895CF93DF939C
:100D200000D01F92CDB7DEB78832B0F493E5980FAC
:100D30009983E82FF0E0EE0FFF1FEA5FFD4F8081FF
:100D4000918100D2BE016E5F7F4F71D182E18C83B1
:100D500064E0CE010196A0D70F900F900F900F90F6
:100D6000DF91CF910895CF93DF9300D000D0CDB71E
:100D7000DEB7803188F4682F83E1860F898388E5A8
:100D800092E057DFBE016E5F7F4F59D182E18E83C3
:100D900066E0CE01019680D726960FB6F894DEBFA6
:100DA0000FBECDBFDF91CF910895CF93DF9300D0D9
:100DB0001F92CDB7DEB78832B0F493EA980F9983CB
:100DC000E82FF0E0EE0FFF1FEA5FFD4F8081918179
:100DD00081D2BE016E5F7F4F2AD182E18C8364E0B5
:100DE000CE01019659D70F900F900F900F90DF9181
:100DF000CF910895CF93DF9300D01F92CDB7DEB788
:100E0000803188F4682F83E3860F898388E592E038
:100E100020DFBE016E5F7F4F0AD182E18C8364E0E8
:100E2000CE01019639D70F900F900F900F90DF9160
:100E3000CF910895EF92FF921F93CF93DF9300D04D
:100E40001F92CDB7DEB78832F8F4182FE82EF12CB8
:100E5000C701880F991F9C012A5F3D4F7901F90155
:100E600080819181A5D183E5810F8983F7018081FC
:100E7000918168D1BE016E5F7F4FD9D082E18C83B2
:100E800064E0CE01019608D70F900F900F900F905D
:100E9000DF91CF911F91FF90EF900895EF92FF9215
:100EA0001F93CF93DF9300D01F92CDB7DEB7883268
:100EB000F8F4182FE82EF12CC701880F991F9C0118
:100EC0002A5F3D4F7901F90180819181A4D183EAA4
:100ED000810F8983F70180819181FCD1BE016E5F12
:100EE0007F4FA5D082E18C8364E0CE010196D4D6F9
:100EF0000F900F900F900F90DF91CF911F91FF9067
:100F0000EF9008951F93CF93DF9300D01F92CDB73A
:100F1000DEB78031B8F4462F182F682F88E592E0AD
:100F2000AEDE83E3810F8983612F88E592E091DE55
:100F3000BE016E5F7F4F7BD082E18C8364E0CE0187
:100F40000196AAD60F900F900F900F90DF91CF913E
:100F50001F910895FC01108211820895CF93DF93B1
:100F6000FC012181211103C0DF91CF910895EC0193
:100F7000E081F0E0E55DFB4F808198819F5F988381
:100F80009DEE980F913E38F5E881F0E0E55DFB4F6E
:100F900060816231B1F0E881EF5FE883F0E0E55D08
:100FA000FB4F9081923171F0F0E19F9F600D112411
:100FB000E881EF5FE883F0E0E55DFB4F90819231DF
:100FC00009F060E098819F5F9883833550F4833304
:100FD000A8F48332F0F4898181508983DF91CF9125
:100FE0000895833A28F48B3770F4835523DFF3CFC9
:100FF0008B3C90F0833F99F475DEEDCF833430F471
:10100000835380DFE8CF8B5789DEE5CF8354F2DE50
:10101000E2CF8352A8DEDFCF835A40DFDCCF8B5C88
:10102000C4DED9CFFC0191819F5F91830895982FF1
:101030009F70FB01908382958F7081830895FB01DF
:10104000282F2F7020839C0135952795359527955E
:1010500035952795359527952F702183892F8F708A
:101060008283892F82958F7083830895EF920F93E7
:10107000FC018E2D768365835483438332832183E1
:101080000783E0828230E9F1B0F08430C1F120F0D2
:10109000853081F5118610862781A581B6814C9116
:1010A00081E090E0BC0102C0660F771F2A95E2F74D
:1010B0009B01242B14C0EE2011F08130D9F427813C
:1010C000A581B6814C9181E090E0BC0102C0660F21
:1010D000771F2A95E2F79B012095309524232C93C6
:1010E0003781A381B4812C9101C0880F3A95EAF72A
:1010F000822B8C93108611860F91EF9008951186A4
:1011000010862781A581B6814C9181E090E0BC01D9
:1011100002C0660F771F2A95E2F79B01242B2C93C0
:101120003781A381B4812C9102C0880F991F3A9511
:10113000E2F78095909582238C93108611860F910B
:10114000EF900895FC019081923079F138F094305D
:1011500019F040F19530B9F4808508959923A9F0EC
:10116000913089F4A181B2819C912781892F90E0EF
:1011700002C0959587952A95E2F78170992721E01D
:1011800082278170089580E00895A181B2819C91A9
:101190002781892F90E002C0959587952A95E2F7DF
:1011A00081700895A381B481DFCFA381B481EFCF93
:1011B000FC0190819330D1F030F0943011F09530F3
:1011C00041F560870895923029F537810380F481D5
:1011D000E02D208181E090E002C0880F991F3A95B0
:1011E000E2F7662389F0822B80830895378103809C
:1011F000F481E02D208181E090E002C0880F991FEA
:101200003A95E2F7662379F380959095822380835F
:10121000089508950895FC0160836230D9F1B8F013
:101220006430B1F128F0653009F053C011861086A2
:101230002781A581B6814C9181E090E0BC0102C07C
:10124000660F771F2A95E2F79B01242B14C06623B3
:1012500011F06130E9F52781A581B6814C9181E0DB
:1012600090E0BC0102C0660F771F2A95E2F79B0150
:101270002095309524232C9337810380F481E02D31
:10128000208101C0880F3A95EAF7822B8083089568
:10129000118610862781A581B6814C9181E090E06E
:1012A000BC0102C0660F771F2A95E2F79B01242B31
:1012B0002C9337810380F481E02D208102C0880FB8
:1012C000991F3A95E2F7809590958223808308953F
:1012D00008950895FC0180810895FC018081843087
:1012E00021F18081853021F081858F5F818708958C
:1012F00091858085891718F181858111F5CF8085C9
:10130000882391F33781A381B4812C9181E090E00F
:1013100002C0880F991F3A95E2F780959095822335
:101320008C9381858F5F818708959185808589174A
:1013300048F381858111D8CF80858823A9F2378130
:10134000A381B4812C9181E090E001C0880F3A958F
:10135000EAF7822B8C9381858F5F81870895FC014A
:1013600010820895FC018081882321F00000908183
:101370009111FCCF81E080830895FC0110820895D3
:10138000CF92DF92EF920F93CF93DF938AE090E0BA
:10139000E5D26C0183E0E82E01E026E230E048E28D
:1013A00050E067E270E0C60161DEC6E0D2E0D982BB
:1013B000C8828AE090E0D2D26C0103E026E230E0FD
:1013C00048E250E067E270E051DEDB82CA828AE0E8
:1013D00090E0C4D26C0105E026E230E048E250E043
:1013E00067E270E043DEDD82CC828AE090E0B6D234
:1013F0006C0107E026E230E048E250E067E270E08E
:1014000035DEDF82CE828AE090E0A8D26C0106E071
:1014100020E230E042E250E061E270E027DED9866F
:10142000C8868AE090E09AD26C0104E020E230E0C5
:1014300042E250E061E270E019DEDB86CA868AE0B3
:1014400090E08CD26C0102E020E230E042E250E019
:1014500061E270E00BDEDD86CC868AE090E07ED231
:101460006C0100E020E230E042E250E061E270E036
:10147000FDDDDF86CE868AE090E070D26C0126E248
:1014800030E048E250E067E270E0F0DDD98AC88AD7
:101490008AE090E063D26C0102E026E230E048E2AC
:1014A00050E067E270E0E2DDDB8ACA8A8AE090E021
:1014B00055D26C0104E026E230E048E250E067E2F9
:1014C00070E0D4DDDD8ACC8A8AE090E047D26C01FE
:1014D00006E026E230E048E250E067E270E0C6DD78
:1014E000DF8ACE8A8AE090E039D26C0107E020E200
:1014F00030E042E250E061E270E0B8DDD98EC88EA3
:101500008AE090E02BD26C0105E020E230E042E27C
:1015100050E061E270E0AADDDB8ECA8E8AE090E0E6
:101520001DD26C0103E020E230E042E250E061E2D3
:1015300070E09CDDDD8ECC8E8AE090E00FD26C01F5
:1015400001E020E230E042E250E061E270E08EDD56
:10155000DF8ECE8E8AE090E001D26C0107E029E2B6
:1015600030E04BE250E06AE270E080DDD9A2C8A230
:101570008AE090E0F3D16C0101E022E330E044E343
:1015800050E063E370E072DDDBA2CAA28AE090E083
:10159000E5D16C0107E029E031E04BE051E06AE081
:1015A00071E064DDDDA2CCA28AE090E0D7D16C01CD
:1015B00005E029E031E04BE051E06AE071E056DD02
:1015C000DFA2CEA28AE090E0C9D16C0103E029E05D
:1015D00031E04BE051E06AE071E048DDD9A6C8A6F1
:1015E0008AE090E0BBD16C0101E029E031E04BE002
:1015F00051E06AE071E03ADDDBA6CAA68AE090E03D
:10160000ADD16C0103E023E230E045E250E064E25A
:1016100070E02CDDDDA6CCA68AE090E09FD16C01C5
:1016200001E023E230E045E250E064E270E01EDDDC
:10163000DFA6CEA68AE090E091D16C0102E022E321
:1016400030E044E350E063E370E010DDD9AAC8AABB
:101650008AE090E083D16C0100E022E330E044E3D3
:1016600050E063E370E002DDDBAACAAA8AE090E002
:1016700075D16C0106E029E031E04BE051E06AE011
:1016800071E0F4DCDDAACCAA8AE090E067D16C01BD
:1016900004E029E031E04BE051E06AE071E0E6DC93
:1016A000DFAACEAA8AE090E059D16C0102E029E0DD
:1016B00031E04BE051E06AE071E0D8DCD9AEC8AE71
:1016C0008AE090E04BD16C0100E029E031E04BE092
:1016D00051E06AE071E0CADCDBAECAAE8AE090E0BD
:1016E0003DD16C0102E023E230E045E250E064E2EB
:1016F00070E0BCDCDDAECCAE8AE090E02FD16C01B6
:1017000000E023E230E045E250E064E270E0AEDC6D
:10171000DFAECEAE8AE090E021D1EC0105E020E022
:1017200031E042E051E061E071E0A0DCD09347029B
:10173000C09346028AE090E011D1EC0106E020E07F
:1017400031E042E051E061E071E090DCD093490289
:10175000C09348028AE090E001D1EC0104E02CE261
:1017600030E04EE250E06DE270E080DCD0934B025E
:10177000C0934A028AE090E0F1D0EC0105E02CE24F
:1017800030E04EE250E06DE270E070DCD0934D024C
:10179000C0934C028AE090E0E1D0EC0122E330E01B
:1017A00044E350E063E370E061DCD0934F02C09308
:1017B0004E028AE090E0D2D0EC0103E02CE230E06F
:1017C0004EE250E06DE270E051DCD0935102C093E4
:1017D00050028AE090E0C2D0EC0120E031E042E02B
:1017E00051E061E071E042DCD0935302C0935202B9
:1017F0008AE090E0B3D0EC0104E020E031E042E088
:1018000051E061E071E032DCD0935502C0935402A4
:10181000DF91CF910F91EF90DF90CF900895279AAD
:10182000AFDD80E792E0909399008093980082E08A
:10183000809371008CE080939100CFD1DAD17894BD
:1018400086E592E08BDBFCCF1F920F920FB60F92D2
:1018500011240BB60F922F933F934F935F936F9387
:101860007F938F939F93AF93BF93CF93DF93EF9328
:10187000FF93C6E0D2E0899199912FDD82E0C435D3
:10188000D807C9F7FF91EF91DF91CF91BF91AF9149
:101890009F918F917F916F915F914F913F912F9188
:1018A0000F900BBE0F900FBE0F901F9018951F92B8
:1018B0000F920FB60F9211240BB60F922F933F93F6
:1018C0004F935F936F937F938F939F93AF93BF9348
:1018D000EF93FF9388E592E03AD8FF91EF91BF91A3
:1018E000AF919F918F917F916F915F914F913F91B8
:1018F0002F910F900BBE0F900FBE0F901F90189559
:10190000CF93DF931F921F92CDB7DEB780912B0547
:1019100090912C05009751F09C01CE010196821BFD
:10192000930B0F900F90DF91CF9108952FE235E048
:10193000F4CF88E592E00E940E0486E592E00ACB9F
:10194000CF93DF93C0ECD3E0CE0143D1689782E020
:10195000C034D807C9F7DF91CF910895E9C1CF927C
:10196000DF92EF92FF92CF93DF93FC01A689B789B4
:10197000C689D7898A899B8955969C938E9354975B
:10198000A689B789C689D7898889998953969C93EE
:101990008E935297A689B789C689D7898E859F85E8
:1019A00051969C938E935097A689B789C689D789FB
:1019B0008C859D851F969C938E931E97A689B789CB
:1019C000C689D7898A859B851D969C938E931C9783
:1019D000A689B789C689D789888599851B969C93DE
:1019E0008E931A97A689B789C689D7898E819F81D8
:1019F00019969C938E931897A689B789C689D7891B
:101A00008C819D8117969C938E931697A689B78992
:101A1000C689D7898A819B8115969C938E9314974A
:101A2000A689B789C689D7898881998113969C939D
:101A30008E931297A689B7896D937C93208131810B
:101A4000A689B7896D917C91C281D3818689978956
:101A5000DC0112964D915C911397DB014ED16B0125
:101A60007C019E01DA0149D1C60ED71EE81EF91E7F
:101A700024813581A689B78914960D90BC91A02D3B
:101A80003CD1C60ED71EE81EF91E26813781A689D5
:101A9000B78916960D90BC91A02D2FD1C60ED71EDA
:101AA000E81EF91E20853185A689B78918960D9004
:101AB000BC91A02D22D1C60ED71EE81EF91E22858C
:101AC0003385A689B7891A960D90BC91A02D15D1A2
:101AD000C60ED71EE81EF91E24853585A689B7894E
:101AE0001C960D90BC91A02D08D1C60ED71EE81EE5
:101AF000F91E26853785A689B7891E960D90BC915B
:101B0000A02DFBD0C60ED71EE81EF91E20893189F4
:101B1000A689B78950960D90BC91A02DEED0C60E27
:101B2000D71EE81EF91E22893389A689B7895296E5
:101B30000D90BC91A02DE1D0C60ED71EE81EF91E57
:101B4000248935890688F789E02DA489B589D5D0FF
:101B5000DC01CB018C0D9D1DAE1DBF1D22E1B59595
:101B6000A795979587952A95D1F7DF91CF91FF900B
:101B7000EF90DF90CF900895CF93DF93EC018CEF3F
:101B800098E5998388832AE63BE53B832A8348E5E9
:101B90005DE55D834C836CEB7EE57F836E83E5E9D9
:101BA000FFE5F987E887ADEDBFE5BB87AA87FD872D
:101BB000EC877F876E87598B488B3B8B2A8B9D8B5D
:101BC0008C8B86E190E0B4D09F8B8E8BDF91CF9190
:101BD0000895FC018689978943C11092C50080E170
:101BE0008093C40088E98093C10086E08093C2009E
:101BF00008951092CD0083E38093CC0088E9809310
:101C0000C90086E08093CA0008951F920F920FB614
:101C10000F9211240BB60F922F933F934F935F9324
:101C20006F937F938F939F93AF93BF93EF93FF93A4
:101C30009091C600E0912A04F0E0E55DFB4F9083AF
:101C400080912A048F5F80932A04923199F0FF914A
:101C5000EF91BF91AF919F918F917F916F915F9124
:101C60004F913F912F910F900BBE0F900FBE0F9091
:101C70001F90189586E592E0D5D9E9CF1F920F9273
:101C80000FB60F9211248F938091CE008F910F90F9
:101C90000FBE0F901F9018951F93CF93DF93182FAF
:101CA000D92FC62F89E294E05DDBCC23A9F0E12F88
:101CB000FD2FC1502C2F30E02F5F3F4F2E0F3F1FC5
:101CC00001C000008091C00085FFFBCF819180930F
:101CD000C600E217F307B1F789E294E0DF91CF91F4
:101CE0001F914BCB89E294E03ACBEE0FFF1F881F88
:101CF0008BBF0790F691E02D199405D0332312F491
:101D00008A1B9B0B10C0A29FB001B39FC001A39F71
:101D1000700D811D1124911DB29F700D811D112424
:101D2000911D0895F0DFB7FF0895821B930B08956E
:101D30000F931F93CF93DF938230910510F482E0CD
:101D400090E0E0912D05F0912E0520E030E0A0E03C
:101D5000B0E0309719F14081518102811381481719
:101D60005907C8F08417950769F4109731F0129657
:101D70000C93129713961C9327C000932D05109374
:101D80002E0522C02115310519F04217530718F40A
:101D90009A01BD01EF01DF01F801DBCF211531050B
:101DA000F9F0281B390B2430310580F48A819B819E
:101DB0006115710521F0FB019383828304C0909328
:101DC0002E0580932D05FE01329644C0FE01E20FE0
:101DD000F31F8193919322503109398328833AC0AC
:101DE00020912B0530912C05232B41F420910202E8
:101DF0003091030230932C0520932B052091000293
:101E0000309101022115310541F42DB73EB74091C3
:101E1000040250910502241B350BE0912B05F09133
:101E20002C05E217F307A0F42E1B3F0B28173907E8
:101E300078F0AC014E5F5F4F2417350748F04E0F26
:101E40005F1F50932C0540932B058193919302C003
:101E5000E0E0F0E0CF01DF91CF911F910F91089565
:101E6000CF93DF93009709F481C0FC01329713826E
:101E70001282A0912D05B0912E05109781F420813A
:101E80003181820F931F20912B0530912C0528174B
:101E9000390751F5F0932C05E0932B0567C0ED0150
:101EA00020E030E0CE17DF0740F44A815B819E01DD
:101EB00041155105F1F0EA01F5CFD383C28340818A
:101EC0005181840F951FC817D90759F488819981CA
:101ED000840F951F0296918380838A819B819383CF
:101EE00082832115310529F4F0932E05E0932D0509
:101EF0003DC0E901FB83EA8349915991C40FD51F85
:101F0000EC17FD0761F480819181840F951F029683
:101F1000E90199838883828193819B838A83E0E0AE
:101F2000F0E012968D919C911397009719F0FD01A6
:101F3000DC01F7CF8D919C9111979D012E5F3F4F52
:101F4000820F931F20912B0530912C0528173907FC
:101F500069F4309729F410922E0510922D0502C0D5
:101F600013821282B0932C05A0932B05DF91CF91A1
:101F7000089513E0CBEDD3E000E005C0802FFE0113
:101F8000B4DE2196011DCC3DD10780E00807B1F7F2
:041F9000F894FFCFF3
:061F940000002F052000F3
:00000001FF
