S012000061726475696E6F20696F2E7372656328
S1130000DBC300000AC4000008C4000006C40000EA
S113001004C4000002C4000000C40000FEC30000C9
S1130020FCC30000FAC30000F8C30000F6C30000DC
S1130030F4C30000F2C30000F0C30000EEC30000EC
S1130040ECC30000EAC300000C949B08E6C3000064
S1130050E4C30000E2C30000E0C30000DEC300000C
S1130060DCC300000C943D15D8C30000D6C30000C7
S1130070D4C300000C941013D0C30000CEC30000FE
S11300800C94CA12CAC30000C8C30000C6C300004F
S11300900C948A15C2C30000C0C30000BEC3000094
S11300A0BCC30000BAC30000B8C30000B6C300005C
S11300B0B4C30000B2C30000B0C30000AEC300006C
S11300C0ACC30000AAC30000A8C30000A6C300007C
S11300D0A4C30000A2C30000A0C300009EC300008C
S11300E09CC30000BB04C804D504E204EF04FC0470
S11300F0090516052805350542054F055C05690502
S113010076058305FBFFFBFFFBFFFBFFFBFFFBFF0C
S1130110FBFFFBFFFBFFFCFFFCFFFCFFFCFFFCFF06
S1130120FCFFFCFFFCFFFCFFFDFFFDFFFDFFFDFFEF
S1130130FDFFFDFFFDFFFDFFFEFFFEFFFEFFFEFFD7
S1130140FEFFFEFFFEFFFEFFFFFFFFFFFFFFFFFFBF
S1130150FFFFFFFFFFFFFFFF0000000000000000A3
S11301600000000000000100010001000100010086
S1130170010001000200020002000200020002006D
S11301800200030003000300030003000300030054
S11301900400040004000400040004000500050039
S11301A0050005000500050006000600060006001F
S11301B00600060007000700070007000700070005
S11301C008000800080008000800090009000900E8
S11301D00900090009000A000A000A000A000A00CE
S11301E00B000B000B000B000B000C000C000C00B0
S11301F00C000C000D000D000D000D000D000E0094
S11302000E000E000E000E000F000F000F000F0076
S11302100F00100010001000100011001100110058
S1130220110011001200120012001200120013003B
S1130230130013001300140014001400140015001C
S113024015001500150015001600160016001600FE
S113025017001700170017001800180018001800DE
S113026019001900190019001A001A001A001A00BE
S11302701B001B001B001B001C001C001C001C009E
S11302801D001D001D001D001E001E001E001E007E
S11302901F001F001F00200020002000200021005C
S11302A0210021002100220022002200230023003B
S11302B0230023002400240024002400250025001A
S11302C025002600260026002600270027002700F8
S11302D028002800280029002900290029002A00D4
S11302E02A002A002B002B002B002B002C002C00B2
S11302F02C002D002D002D002E002E002E002F008E
S11303002F002F0030003000300030003100310069
S11303103100320032003200330033003300340045
S11303203400340035003500350036003600360020
S113033037003700370038003800380039003900FA
S113034039003A003A003A003B003B003B003C00D5
S11303503C003C003D003D003D003E003E003E00B0
S11303603F003F0040004000400041004100410088
S11303704200420042004300430044004400440061
S1130380450045004500460046004600470047003A
S11303904800480048004900490049004A004A0012
S11303A04B004B004B004C004C004C004D004D00EA
S11303B04E004E004E004F004F00500050005000C1
S11303C05100510052005200520053005300540097
S11303D0540054005500550056005600560057006E
S11303E05700580058005800590059005A005A0044
S11303F05A005B005B005C005C005D005D005D001A
S11304005E005E005F005F005F00600060006100EE
S113041061006200620062006300630064006400C3
S11304206500650065006600660067006700680097
S113043068006900690069006A006A006B006B006B
S11304406C006C006D006D006D006E006E006F003E
S11304506F007000EAFFEAFFEAFFEBFFEBFFEBFF40
S1130460ECFFECFFECFFEDFFEDFFEDFFEEFFEEFF29
S1130470EEFFEFFFEFFFEFFFF0FFF0FFF0FFF1FF04
S1130480F1FFF1FFF2FFF2FFF2FFF3FFF3FFF4FFDE
S1130490F4FFF4FFF5FFF5FFF5FFF6FFF6FFF6FFB7
S11304A0F7FFF7FFF7FFF8FFF8FFF8FFF9FFF9FF91
S11304B0F9FFFAFFFAFFFBFFFBFFFBFFFCFFFCFF6A
S11304C0FCFFFDFFFDFFFDFFFEFFFEFFFFFFFFFF43
S11304D0FFFF000000000000010001000100020015
S11304E002000300030003000400040004000500EC
S11304F005000500060006000700070007000800C5
S113050008000800090009000A000A000A000B009C
S11305100B000B000C000C000D000D000D000E0074
S11305200E000F000F000F0010001000100011004B
S11305301100120012001200130013001400140022
S113054014001500150015001600160017001700FA
S11305501700180018001900190019001A001A00D1
S11305601B001B001B001C001C001D001D001D00A7
S11305701E001E001F001F001F002000200021007D
S11305802100220022002200230023002400240052
S11305902400250025002600260026002700270029
S11305A0280028002900290029002A002A002B00FD
S11305B02B002B002C002C002D002D002E002E00D3
S11305C02E002F002F0030003000310031003100A8
S11305D0320032003300330034003400340035007C
S11305E03500360036003700370038003800380050
S11305F0390039003A003A003B003B003C003C0023
S11306003C003D003D003E003E003F003F004000F6
S113061040004000410041004200420043004300CA
S1130620440044004500450046004600460047009B
S1130630470048004800490049004A004A004B006E
S11306404B004C004C004C004D004D004E004E0041
S11306504F004F0050005000510051005200520012
S113066053005300540054005500550056005600E2
S113067057005700570058005800590059005A00B5
S11306805A005B005B005C005C005D005D005E0086
S11306905E005F005F006000600061006100620056
S11306A06200630063006400640065006500660026
S11306B066006700670068006800690069006A00F6
S11306C06B006B006C006C006D006D006E006E00C2
S11306D06F006F0070007000710071007200720092
S11306E07300730074007400750076007600770060
S11306F0770078007800790079007A007A007B002E
S11307007B007C007D007D007E007E007F007F00FA
S113071080008000810081008200830083008400C7
S11307208400850085008600860087008800880094
S1130730890089008A008A008B008C008C008D005F
S11307408D008E008E008F0090009000910091002B
S113075092009200930094009400950095009600F6
S11307609700970098009800990099009A009B00C0
S11307709B009C009C009D009E009E009F009F008B
S1130780A000A100A100A200A200A300A400A40054
S1130790A500A500A600A700A700A800A900A9001D
S11307A0AA00AA00AB00AC00AC00AD00AE00AE00E5
S11307B0AF00B6130C16C21311241FBECFEFD1E243
S11307C0DEBFCDBF00E00CBF12E0A0E0B2E0E4EF7A
S11307D0FEE200E00BBF02C007900D92A630B10705
S11307E0D9F725E0A6E0B2E001C01D92AF32B2070E
S11307F0E1F713E0CBEDD3E000E006C02197010957
S1130800802FFE010E942716C93DD10780E008070A
S1130810A9F70E94C30F0C946917F2CBEF92FF92D1
S11308200F931F93CF93DF9300D0CDB7DEB79B8395
S11308308A838A819B810FE010E07C010F3F8FEF58
S1130840180749F0C7010E947514E8E1EE0EF11C87
S113085001501109F3CF19828981803140F58981D2
S1130860882F90E02A813B81820F931F80579E4FEF
S113087021E0FC0120838981882F90E02A813B813B
S1130880820F931F80569E4F21E0FC0120838981B3
S1130890882F90E02A813B81820F931F80589E4FBE
S11308A021E0FC01208389818F5F8983D5CF8CE788
S11308B090E020ECFC0120838AE790E02DEAFC0123
S11308C020838BE790E025E0FC0120838A819B81D3
S11308D080559E4FFC01108281E890E029E0FC01E4
S11308E020838FE690E024E0FC01208388E890E0F8
S11308F021E333E2FC01318320838EE790E02FEF84
S1130900FC0120838DE790E02FEFFC0120830000A1
S11309100F900F900F90DF91CF911F910F91FF9047
S1130920EF9008950F931F93CF93DF9300D01F92FE
S1130930CDB7DEB79C838B831A8219828B819C810D
S113094080559E4FFC018081882F90E0092E000C79
S1130950AA0BBB0B40E050E02FE030E0841B950B6A
S11309602817390708F4E1C0FC018827EE58FF4F27
S11309708F4F0C94271688E790E0FC0180819181C9
S11309809A8389838CE790E021ECFC012083CDC01D
S113099088E790E0FC01808191819A8389838CE7C8
S11309A090E022ECFC012083C0C088E790E0FC01C9
S11309B0808191819A8389838CE790E023ECFC0108
S11309C02083B3C088E790E0FC01808191819A8301
S11309D089838CE790E024ECFC012083A6C088E79F
S11309E090E0FC01808191819A8389838CE790E077
S11309F025ECFC01208399C088E790E0FC0180810C
S1130A0091819A8389838CE790E026ECFC01208312
S1130A108CC088E790E0FC01808191819A8389836E
S1130A208CE790E027ECFC0120837FC088E790E00E
S1130A30FC01808191819A8389838BE790E02DE08A
S1130A40FC0120838CE790E020ECFC0120836DC046
S1130A5088E790E0FC01808191819A8389838CE707
S1130A6090E021ECFC01208360C088E790E0FC0169
S1130A70808191819A8389838CE790E022ECFC0148
S1130A80208353C088E790E0FC01808191819A83A0
S1130A9089838CE790E023ECFC01208346C088E73F
S1130AA090E0FC01808191819A8389838CE790E0B6
S1130AB024ECFC01208339C088E790E0FC018081AC
S1130AC091819A8389838CE790E025ECFC01208353
S1130AD02CC088E790E0FC01808191819A8389830E
S1130AE08CE790E026ECFC0120831FC088E790E0AF
S1130AF0FC01808191819A8389838CE790E027ECC3
S1130B00FC01208312C088E790E0FC018081918180
S1130B109A8389838CE790E020ECFC0120838BE7A7
S1130B2090E025E0FC01208300008B819C818055AE
S1130B309E4FFC018081882F90E02B813C81820FA5
S1130B40931F80569E4FFC018081882309F4DFC0E7
S1130B508B819C8180559E4FFC018081882F90E081
S1130B602B813C81820F931F80579E4FFC01808113
S1130B70882309F49AC08B819C8180559E4FFC0187
S1130B808081882F90E02B813C81820F931F8058B5
S1130B909E4FFC01908181E0992309F080E0882335
S1130BA0B1F18B819C8180559E4FFC018081082F7F
S1130BB010E08B819C8180559E4FFC018081282F01
S1130BC030E0C901880F991F820F931F880F991F66
S1130BD0880F991F880F991F2B813C81820F931FC7
S1130BE029813A81B9010E94DE139C018B819C8189
S1130BF0B90165D1AC012B813C81C801880F991FD3
S1130C00820F931F8F549E4FFC01518340838B812D
S1130C109C8180559E4FFC018081882F90E02B8120
S1130C203C81820F931F80589E4FFC01908181E08C
S1130C30913009F080E0882309F4F4C08B819C8111
S1130C4080559E4FFC018081082F10E08B819C8190
S1130C5080559E4FFC018081282F30E0C901880F08
S1130C60991F820F931F880F991F880F991F880F50
S1130C70991F2B813C81820F931F29813A81B901ED
S1130C800E94DE139C018B819C81B9015BD1AC0174
S1130C902B813C81C801880F991F820F931F8F54A9
S1130CA09E4FFC0151834083BDC08B819C81805544
S1130CB09E4FFC018081082F10E08B819C81805520
S1130CC09E4FFC018081282F30E0C901880F991FB5
S1130CD0820F931F880F991F880F991F880F991FE0
S1130CE02B813C81820F931F29813A81B9010E9493
S1130CF0DE13AC012B813C81C801880F991F820F40
S1130D00931F8F549E4FFC01518340838BC08B8172
S1130D109C8180559E4FFC018081882F90E02B811F
S1130D203C81820F931F80579E4FFC018081882352
S1130D3009F463C08B819C8180559E4FFC018081A6
S1130D40882F90E02B813C81820F931F80589E4F07
S1130D50FC01908181E0992309F080E08823D9F097
S1130D608B819C8180559E4FFC018081082F10E06F
S1130D7029813A818B819C81B901A1D0AC012B815D
S1130D803C81C801880F991F820F931F8F549E4F77
S1130D90FC01518340838B819C8180559E4FFC01D3
S1130DA08081882F90E02B813C81820F931F805893
S1130DB09E4FFC01908181E0913009F080E088230E
S1130DC089F18B819C8180559E4FFC018081082F85
S1130DD010E029813A818B819C81B901B3D0AC01A7
S1130DE02B813C81C801880F991F820F931F8F5458
S1130DF09E4FFC015183408315C08B819C8180559B
S1130E009E4FFC018081882F90E02B813C81880FCC
S1130E10991F820F931F8F549E4F29813A81FC01A1
S1130E20318320838B819C8180559E4FFC0190816E
S1130E3081E09F3008F080E0882379F08B819C81E9
S1130E4080559E4FFC01808121E0280F8B819C817D
S1130E5080559E4FFC01208306C08B819C81805568
S1130E609E4FFC01108200000F900F900F900F9086
S1130E70DF91CF911F910F910895CF93DF9300D00D
S1130E80CDB7DEB79A8389836B838B81803118F069
S1130E908FEF9FEF0EC08B81882F90E029813A81DC
S1130EA0880F991F820F931F8F549E4FFC018081DE
S1130EB091810F900F900F90DF91CF910895CF9370
S1130EC0DF93CDB7DEB72A970FB6F894DEBF0FBE17
S1130ED0CDBF98878F837A87698789859A8580397A
S1130EE0914024F480E991E09A87898789859A85DD
S1130EF08F33934024F08EE393E09A878987898522
S1130F009A85805991409A83898389819A81880F2F
S1130F10991F8C5A9B4F9C838B838B819C81FC01F2
S1130F2025913491CF013E832D839C838B838D81C6
S1130F309E812A960FB6F894DEBF0FBECDBFDF9117
S1130F40CF910895CF93DF93CDB7DEB72A970FB62D
S1130F50F894DEBF0FBECDBF98878F837A876987E9
S1130F6089859A858835924024F488E592E09A87A9
S1130F70898789859A858115944024F08FEF93E0C1
S1130F809A87898789859A85885592409A83898327
S1130F9089819A81880F991F8C5F9E4F9C838B83D4
S1130FA08B819C81FC0125913491CF013E832D835B
S1130FB09C838B838D819E812A960FB6F894DEBF25
S1130FC00FBECDBFDF91CF910895CF93DF9300D0B3
S1130FD01F92CDB7DEB79B838A836C838C8180316B
S1130FE010F080E037C019828C81882F90E02A812C
S1130FF03B81820F931F80569E4FFC018081882382
S113100019F08981816089838C81882F90E02A81FD
S11310103B81820F931F80579E4FFC018081882360
S113102019F08981826089838C81882F90E02A81DC
S11310303B81820F931F80589E4FFC018081882F33
S113104090E0880F991F880F991F982F8981892B09
S1131050898389810F900F900F900F90DF91CF912A
S11310600895CF93DF9300D01F92CDB7DEB79A8354
S113107089836B834C838B81803110F081E054C071
S11310808C81882F90E081709927892B69F08B815E
S1131090882F90E029813A81820F931F80569E4FBA
S11310A021E0FC0120830BC08B81882F90E02981F3
S11310B03A81820F931F80569E4FFC0110828C81CF
S11310C0882F90E082709927892B69F08B81882F73
S11310D090E029813A81820F931F80579E4F21E02F
S11310E0FC0120830BC08B81882F90E029813A81F9
S11310F0820F931F80579E4FFC0110828B81882F93
S113110090E02C81222F30E02C70332735952795E1
S113111035952795422F29813A81820F931F805854
S11311209E4FFC01408380E00F900F900F900F9032
S1131130DF91CF9108951F920F9200905F000F925C
S11311401124CF93DF93CDB7DEB700000000DF9109
S1131150CF910F9000925F000F901F901895CF933E
S1131160DF93CDB7DEB780E090E088709927892BB4
S113117011F088E201C088E090E09770892B982FE5
S113118088E10FB6F894A895809360000FBE909301
S113119060000000DF91CF9108950F931F93CF93C8
S11311A0DF9300D000D0CDB7DEB783EF89838E0103
S11311B00E5F1F4F0E944513B8015CD282E18E83FB
S11311C066E0CE0101960E94B215000026960FB685
S11311D0F894DEBF0FBECDBFDF91CF911F910F9169
S11311E008950F931F93CF93DF9300D01F921F9204
S11311F0CDB7DEB78D838D818832D0F48D818D5A41
S113120089838E010E5F1F4F8D81882F90E0880F98
S1131210991F87529C4FFC0180819181B3D2B80100
S11312200BD282E18C8364E0CE0101960E94B21558
S113123000000F900F900F900F900F90DF91CF91BF
S11312401F910F9108950F931F93CF93DF93CDB701
S1131250DEB727970FB6F894DEBF0FBECDBF8F83DE
S11312608F81803198F48F818D5E89838E010E5F2A
S11312701F4F6F8186E092E000DEB801FBD182E16E
S11312808E8366E0CE0101960E94B2150000279677
S11312900FB6F894DEBF0FBECDBFDF91CF911F9183
S11312A00F9108950F931F93CF93DF9300D01F9254
S11312B01F92CDB7DEB78D838D818832D0F48D81B6
S11312C08D5589838E010E5F1F4F8D81882F90E08D
S11312D0880F991F87529C4FFC01808191812DD5E5
S11312E0B801AAD182E18C8364E0CE0101960E9408
S11312F0B21500000F900F900F900F900F90DF9198
S1131300CF911F910F9108950F931F93CF93DF9364
S113131000D01F921F92CDB7DEB78D838D818031AF
S113132098F48D818D5C89838E010E5F1F4F6D81D2
S113133086E092E04ADEB8017FD182E18C8364E0EA
S1131340CE0101960E94B21500000F900F900F90ED
S11313500F900F90DF91CF911F910F910895CF932C
S1131360DF931F921F92CDB7DEB789836A83898189
S1131370883270F48981882F90E0880F991F8752F2
S11313809C4FFC01808191816A81B2D2898129DFDD
S113139000000F900F90DF91CF910895CF93DF93CA
S11313A01F921F92CDB7DEB789836A838981883201
S11313B070F48981882F90E0880F991F87529C4F81
S11313C0FC01808191816A8137D389816BDF0000C0
S11313D00F900F90DF91CF910895CF93DF931F92D9
S11313E01F92CDB7DEB789836A838981803138F44F
S11313F04A81698186E092E034DE898185DF0000DC
S11314000F900F90DF91CF910895CF93DF931F92A8
S11314101F92CDB7DEB79A83898389819A81FC01B3
S1131420108289819A81FC01118200000F900F9033
S1131430DF91CF910895CF93DF931F921F92CDB781
S1131440DEB79A83898389819A81FC01918181E045
S1131450992309F480E0882319F089819A8106D0C0
S113146000000F900F90DF91CF910895CF93DF93F9
S113147000D01F92CDB7DEB79C838B838B819C8178
S1131480FC018081882F90E0875D9B4FFC01808167
S113149089838B819C81FC01808121E0280F8B81D1
S11314A09C81FC0120838981833108F44EC08B81A7
S11314B09C8175D08A838B819C81FC01808121E091
S11314C0280F8B819C81FC01208389818335B8F4AA
S11314D08981833340F48981833208F436C0898159
S11314E08352B1DE32C08981833428F489818353E5
S11314F06A8173DF2AC08981835406DF26C089810B
S1131500833A60F489818B3728F4898183556A8111
S113151026DF1BC089818B5764DE17C089818B3C11
S113152028F48981835A6A8139DF0FC08981833F16
S113153020F489818B5CB6DE08C08981833F09F47D
S11315402CDE8981873F09F40ADE8B819C81FC01B2
S113155081812FEF280F8B819C81FC012183000066
S11315600F900F900F900F90DF91CF910895CF932C
S1131570DF931F921F92CDB7DEB79A838983898147
S11315809A81FC01818121E0280F89819A81FC01E3
S1131590218300000F900F90DF91CF910895CF9396
S11315A0DF9300D01F921F92CDB7DEB79D838C834B
S11315B019821A828C819D81FC018081882F90E0A0
S11315C0875D9B4FFC0180818B838B81823159F134
S11315D08981882F90E0009719F0019731F00CC0B1
S11315E09A818B81890F8A8309C08B818295807F40
S11315F09A81890F8A8302C080E016C089818F5F37
S113160089838C819D81FC01808121E0280F8C815C
S11316109D81FC012083822F90E0875D9B4FFC011C
S113162080818B83D2CF8A810F900F900F900F907F
S11316300F90DF91CF910895CF93DF9300D0CDB772
S1131640DEB789837B836A838981282F2F708A81FF
S11316509B81FC0120838A819B81019629812295AB
S11316602F70FC01208300000F900F900F90DF91EA
S1131670CF910895CF93DF9300D01F92CDB7DEB7FB
S11316809A8389837C836B838981282F2F708B8134
S11316909C81FC0120838B819C81019629813A8164
S11316A0359527953595279535952795359527951E
S11316B02F70FC0120838B819C81029629813A81C1
S11316C0232F330F330B2F70FC0120838B819C81DC
S11316D0039629813A81232F332722952F70FC0109
S11316E0208300000F900F900F900F90DF91CF9107
S11316F008950F93CF93DF93CDB7DEB729970FB635
S1131700F894DEBF0FBECDBF9A8389837C836B833D
S11317105E834D8338872F83098789819A812B8142
S11317203C81FC013683258389819A812D813E8108
S1131730FC013483238389819A812F813885FC01BC
S11317403283218389819A812985FC0127838981B8
S11317509A8163E071D189819A8160E0C9D08981DD
S11317609A81FC01108689819A81FC01118600000E
S113177029960FB6F894DEBF0FBECDBFDF91CF918F
S11317800F910895CF93DF931F921F92CDB7DEB7C9
S11317909A83898389819A81FC018081882F90E0D2
S11317A08230910509F454C0833091052CF40097DC
S11317B079F0019769F196C08430910509F488C0E5
S11317C0843091050CF464C0059709F486C08AC07E
S11317D089819A81FC0181819281FC018081882F19
S11317E090E029813A81F9012781222F30E002C05B
S11317F0959587952A95E2F78170992721E0892BA1
S113180009F420E0222311F081E06DC080E06BC078
S113181089819A81FC0181819281FC018081882FD8
S113182090E029813A81F9012781222F30E002C01A
S1131830959587952A95E2F78170992721E0892B60
S113184009F420E0222311F080E04DC081E04BC078
S113185089819A81FC0183819481FC018081882F94
S113186090E029813A81F9012781222F30E002C0DA
S1131870959587952A95E2F78170992721E0892B20
S113188009F420E0222311F081E02DC080E02BC078
S113189089819A81FC0183819481FC018081882F54
S11318A090E029813A81F9012781222F30E002C09A
S11318B0959587952A95E2F78170992721E0892BE0
S11318C009F420E0222311F080E00DC081E00BC078
S11318D089819A81FC01808506C089819A81FC01F5
S11318E0808501C080E00F900F90DF91CF91089523
S11318F0CF93DF9300D0CDB7DEB79A8389836B8310
S113190089819A81FC018081882F90E08230910541
S113191079F0833091050CF487C08430910509F483
S113192077C084309105E4F1059709F477C07DC050
S11319308B818823D1F089819A81FC018781282FAA
S113194030E081E090E0AC0102C0440F551F2A95BD
S1131950E2F79A0189819A81FC0183819481FC01D7
S11319604081242BFC01208360C089819A81FC0181
S11319708781282F30E081E090E002C0880F991F12
S11319802A95E2F79C012095309589819A81FC0182
S113199083819481FC0140812423FC01208345C080
S11319A08B818823D9F089819A81FC018781282F32
S11319B030E081E090E002C0880F991F2A95E2F799
S11319C09C012095309589819A81FC0183819481C1
S11319D0FC0140812423FC01208327C089819A8152
S11319E0FC018781282F30E081E090E0AC0102C047
S11319F0440F551F2A95E2F79A0189819A81FC01C7
S1131A0083819481FC014081242BFC0120830DC03F
S1131A1089819A812B81FC01208707C089819A8161
S1131A202B81FC01208701C0000000000F900F9063
S1131A300F90DF91CF910895CF93DF9300D0CDB76E
S1131A40DEB79A8389836B8389819A81FC01208123
S1131A5081E09B81291709F480E0882309F461C19E
S1131A608B81882F90E08230910509F47DC083300A
S1131A70910534F4009781F0019709F441C051C1F4
S1131A808430910509F4D7C0843091050CF4A0C0CA
S1131A90059709F40CC145C189819A81FC018781AC
S1131AA0282F30E081E090E002C0880F991F2A952A
S1131AB0E2F79C012095309589819A81FC0185810A
S1131AC09681FC0140812423FC01208389819A8131
S1131AD0FC018781282F30E081E090E0AC0102C056
S1131AE0440F551F2A95E2F79A0189819A81FC01D6
S1131AF083819481FC014081242BFC01208311C14A
S1131B0089819A81FC018781282F30E081E090E06F
S1131B1002C0880F991F2A95E2F79C012095309501
S1131B2089819A81FC0185819681FC01408124236D
S1131B30FC01208389819A81FC018781282F30E070
S1131B4081E090E0AC0102C0440F551F2A95E2F7F2
S1131B509A0189819A81FC0183819481FC014081ED
S1131B60242BFC012083DDC089819A81FC018781BB
S1131B70282F30E081E090E0AC0102C0440F551FF3
S1131B802A95E2F79A0189819A81FC0185819681DF
S1131B90FC014081242BFC01208389819A81FC0172
S1131BA08781282F30E081E090E002C0880F991FE0
S1131BB02A95E2F79C012095309589819A81FC0150
S1131BC083819481FC0140812423FC012083A9C0EA
S1131BD089819A81FC018781282F30E081E090E09F
S1131BE0AC0102C0440F551F2A95E2F79A0189817E
S1131BF09A81FC0185819681FC014081242BFC01A2
S1131C00208389819A81FC018781282F30E081E03B
S1131C1090E0AC0102C0440F551F2A95E2F79A01E7
S1131C2089819A81FC0183819481FC014081242B68
S1131C30FC01208376C089819A81FC011186898107
S1131C409A81FC01108689819A81FC018781282F61
S1131C5030E081E090E0AC0102C0440F551F2A95AA
S1131C60E2F79A0189819A81FC0185819681FC01C0
S1131C704081242BFC01208389819A81FC01878186
S1131C80282F30E081E090E002C0880F991F2A9548
S1131C90E2F79C012095309589819A81FC0183812A
S1131CA09481FC0140812423FC0120833AC0898172
S1131CB09A81FC01118689819A81FC0110868981AF
S1131CC09A81FC018781282F30E081E090E0AC010B
S1131CD002C0440F551F2A95E2F79A0189819A811F
S1131CE0FC0185819681FC014081242BFC01208329
S1131CF089819A81FC018781282F30E081E090E07E
S1131D00AC0102C0440F551F2A95E2F79A0189815C
S1131D109A81FC0183819481FC014081242BFC0184
S1131D20208389819A812B81FC01208300000F90FC
S1131D300F900F90DF91CF910895CF93DF931F926F
S1131D401F92CDB7DEB79A83898389819A81FC017A
S1131D5080810F900F90DF91CF910895CF93DF93FF
S1131D601F921F92CDB7DEB79A83898389819A81A6
S1131D70FC01908181E0943009F080E0882309F42B
S1131D8055C089819A81FC01218589819A81FC0150
S1131D90908581E0921708F080E08823D9F089814A
S1131DA09A81FC018781282F30E081E090E002C015
S1131DB0880F991F2A95E2F79C0120953095898117
S1131DC09A81FC0183819481FC0140812423FC01DC
S1131DD020838AC089819A81FC018185882341F40A
S1131DE089819A81FC018085882311F081E001C0FA
S1131DF080E0882309F478C089819A81FC01878175
S1131E00282F30E081E090E0AC0102C0440F551F60
S1131E102A95E2F79A0189819A81FC018381948150
S1131E20FC014081242BFC0120835EC089819A81BE
S1131E30FC01908181E0953009F080E0882309F469
S1131E4053C089819A81FC01218589819A81FC0191
S1131E50908581E0921708F080E08823D1F0898191
S1131E609A81FC018781282F30E081E090E0AC0169
S1131E7002C0440F551F2A95E2F79A0189819A817D
S1131E80FC0183819481FC014081242BFC0120838B
S1131E902BC089819A81FC018185882341F4898141
S1131EA09A81FC018085882311F081E001C080E0E3
S1131EB08823D1F089819A81FC018781282F30E021
S1131EC081E090E002C0880F991F2A95E2F79C01F7
S1131ED02095309589819A81FC0183819481FC014C
S1131EE040812423FC01208389819A81FC0181851E
S1131EF021E0280F89819A81FC01218700000F903D
S1131F000F90DF91CF910895CF93DF931F921F928B
S1131F10CDB7DEB79A83898389819A81FC011082C7
S1131F2000000F900F90DF91CF910895CF93DF932E
S1131F301F921F92CDB7DEB79A83898389819A81D4
S1131F40FC018081882311F00000F8CF89819A81F7
S1131F5021E0FC01208300000F900F90DF91CF91CE
S1131F600895CF93DF931F921F92CDB7DEB79A8364
S1131F70898389819A81FC01108200000F900F905F
S1131F80DF91CF910895CF93DF931F921F92CDB726
S1131F90DEB784E590E0FC0110820FB6F894A895B2
S1131FA080916000886180936000109260000FBE91
S1131FB084E290E024E230E0F90120812068FC0111
S1131FC0208319D0CED209D531D587EF898382E118
S1131FD08A8362E0CE010196C5D505D0789487ED59
S1131FE093E029DAFCCFCF93DF93CDB7DEB70000BF
S1131FF0DF91CF910895EF92FF920F93CF93DF93E8
S1132000CDB7DEB78AE090E0C9D37C0101E026E2D7
S113201030E048E250E067E270E0C7016ADBF0922A
S1132020DA03E092D9038AE090E0B8D37C0103E0BC
S113203026E230E048E250E067E270E0C70159DB95
S1132040F092DC03E092DB038AE090E0A7D37C010A
S113205005E026E230E048E250E067E270E0C701C4
S113206048DBF092DE03E092DD038AE090E096D351
S11320707C0107E026E230E048E250E067E270E0ED
S1132080C70137DBF092E003E092DF038AE090E0DF
S113209085D37C0106E020E230E042E250E061E2D8
S11320A070E0C70126DBF092E203E092E1038AE0EC
S11320B090E074D37C0104E020E230E042E250E09E
S11320C061E270E0C70115DBF092E403E092E30300
S11320D08AE090E063D37C0102E020E230E042E257
S11320E050E061E270E0C70104DBF092E603E092A5
S11320F0E5038AE090E052D37C0100E020E230E086
S113210042E250E061E270E0C701F3DAF092E803E2
S1132110E092E7038AE090E041D37C0100E026E20C
S113212030E048E250E067E270E0C701E2DAF092A2
S1132130EA03E092E9038AE090E030D37C0102E014
S113214026E230E048E250E067E270E0C701D1DA0D
S1132150F092EC03E092EB038AE090E01FD37C0161
S113216004E026E230E048E250E067E270E0C701B4
S1132170C0DAF092EE03E092ED038AE090E00ED331
S11321807C0106E026E230E048E250E067E270E0DD
S1132190C701AFDAF092F003E092EF038AE090E037
S11321A0FDD27C0107E020E230E042E250E061E24F
S11321B070E0C7019EDAF092F203E092F1038AE044
S11321C090E0ECD27C0105E020E230E042E250E015
S11321D061E270E0C7018DDAF092F403E092F30358
S11321E08AE090E0DBD27C0103E020E230E042E2CE
S11321F050E061E270E0C7017CDAF092F603E0920D
S1132200F5038AE090E0CAD27C0101E020E230E0EC
S113221042E250E061E270E0C7016BDAF092F80349
S1132220E092F7038AE090E0B9D27C0107E029E26A
S113223030E04BE250E06AE270E0C7015ADAF09213
S1132240FA03E092F9038AE090E0A8D27C0101E06D
S113225022E330E044E350E063E370E0C70149DA8D
S1132260F092FC03E092FB038AE090E097D27C01B9
S113227007E029E031E04BE051E06AE071E0C7019A
S113228038DAF092FE03E092FD038AE090E086D211
S11322907C0105E029E031E04BE051E06AE071E0C7
S11322A0C70127DAF0920004E092FF038AE090E08D
S11322B075D27C0103E029E031E04BE051E06AE0B3
S11322C071E0C70116DAF0920204E09201048AE098
S11322D090E064D27C0101E029E031E04BE051E080
S11322E06AE071E0C70105DAF0920404E0920304A5
S11322F08AE090E053D27C0103E023E230E045E23F
S113230050E064E270E0C701F4D9F0920604E09270
S113231005048AE090E042D27C0101E023E230E04F
S113232045E250E064E270E0C701E3D9F0920804AA
S1132330E09207048AE090E031D27C0102E022E3DB
S113234030E044E350E063E370E0C701D2D9F09297
S11323500A04E09209048AE090E020D27C0100E0C3
S113236022E330E044E350E063E370E0C701C1D905
S1132370F0920C04E0920B048AE090E00FD27C010E
S113238006E029E031E04BE051E06AE071E0C7018A
S1132390B0D9F0920E04E0920D048AE090E0FED1F0
S11323A07C0104E029E031E04BE051E06AE071E0B7
S11323B0C7019FD9F0921004E0920F048AE090E0E4
S11323C0EDD17C0102E029E031E04BE051E06AE02C
S11323D071E0C7018ED9F0921204E09211048AE0F0
S11323E090E0DCD17C0100E029E031E04BE051E0F9
S11323F06AE071E0C7017DD9F0921404E0921304FD
S11324008AE090E0CBD17C0102E023E230E045E2B7
S113241050E064E270E0C7016CD9F0921604E092D7
S113242015048AE090E0BAD17C0100E023E230E0B8
S113243045E250E064E270E0C7015BD9F092180411
S1132440E09217048AE090E0A9D17C0105E020E045
S113245031E042E051E061E071E0C7014AD9F09215
S11324601A04E09219048AE090E098D17C0106E015
S113247020E031E042E051E061E071E0C70139D988
S1132480F0921C04E0921B048AE090E087D17C0166
S113249004E02CE230E04EE250E06DE270E0C7016F
S11324A028D9F0921E04E0921D048AE090E076D1CF
S11324B07C0105E02CE230E04EE250E06DE270E099
S11324C0C70117D9F0922004E0921F048AE090E03B
S11324D065D17C0105E022E330E044E350E063E3AE
S11324E070E0C70106D9F0922204E09221048AE048
S11324F090E054D17C0103E02CE230E04EE250E065
S11325006DE270E0C701F5D8F0922404E092230450
S11325108AE090E043D17C0103E020E031E042E036
S113252051E061E071E0C701E4D8F0922604E09242
S113253025048AE090E032D17C0104E020E031E01F
S113254042E051E061E071E0C701D3D8F092280481
S1132550E09227040000DF91CF910F91FF90EF905C
S11325600895CF93DF93CDB7DEB788E990E024E6F2
S113257030E0FC013183208381E790E022E0FC011C
S1132580208381E990E02CE0FC0120830000DF91AE
S1132590CF9108951F920F9200905F000F92112423
S11325A000905B000F922F933F934F935F936F9331
S11325B07F938F939F93AF93BF93EF93FF93CF93A7
S11325C0DF931F92CDB7DEB719828981883278F400
S11325D08981882F90E0880F991F87529C4FFC01B6
S11325E080819181BBDB89818F5F8983EECF00007D
S11325F00F90DF91CF91FF91EF91BF91AF919F9198
S11326008F917F916F915F914F913F912F910F9097
S113261000925B000F9000925F000F901F9018953E
S11326201F920F9200905F000F92112400905B00A4
S11326300F922F933F934F935F936F937F938F9357
S11326409F93AF93BF93EF93FF93CF93DF93CDB754
S1132650DEB786E092E00E9492040000DF91CF9101
S1132660FF91EF91BF91AF919F918F917F916F9166
S11326705F914F913F912F910F9000925B000F90CB
S113268000925F000F901F901895CF93DF931F92D5
S11326901F92CDB7DEB79E012F5F3F4F80912B0570
S11326A090912C05892B29F080912B0590912C0574
S11326B002C08FE295E0A901481B590BCA010F9093
S11326C00F90DF91CF9108950F931F93CF93DF93D2
S11326D01F921F92CDB7DEB79A83898389819A812D
S11326E0892B79F089819A818C0100581E4F898148
S11326F09A810817190729F008511109C80159D1FD
S1132700F6CF00000F900F90DF91CF911F910F91A2
S11327100895CF93DF9300D01F92CDB7DEB79A838D
S113272089837C836B8389819A81019761F48B818E
S11327309C81019641F486E092E00E940E0487EDAC
S113274093E00E94050A89819A81892B39F48B814F
S11327509C81019619F486E092E0B6DF00000F90A8
S11327600F900F900F90DF91CF910895CF93DF9347
S1132770CDB7DEB76FEF7FEF81E090E0CADFDF9186
S1132780CF910895CF93DF93CDB7DEB76FEF7FEF8F
S113279080E090E0BEDFDF91CF910895CF93DF9387
S11327A01F921F92CDB7DEB79A83898389819A815C
S11327B06FD20F900F90DF91CF910895CF93DF9355
S11327C0CDB7DEB72A970FB6F894DEBF0FBECDBFE4
S11327D098878F837A87698719821A821B821C8261
S11327E08AE08D838D81882321F18F819885FC0176
S11327F0268937898D81882F90E0880F991F820F51
S1132800931F2F813885F901468957892D81222FFD
S113281030E021503048220F331F240F351FF901B7
S113282020813181FC01318320838D8181508D830E
S1132830D9CF8F819885FC018689978929853A8526
S1132840FC01318320831E828E818B30C0F58E8102
S1132850882F90E02F813885880F991F820F931F4E
S1132860FC01808191819C01990F440B550B8F8150
S11328709885FC01668977898E81882F90E0880F7E
S1132880991F860F971FFC0180819181092E000CEE
S1132890AA0BBB0BBC01CD01CBD19B01AC0189813F
S11328A09A81AB81BC81820F931FA41FB51F8983BA
S11328B09A83AB83BC838E818F5F8E83C5CF8981DE
S11328C09A81AB81BC81072E72E1B595A795979546
S11328D087957A95D1F7702D2A960FB6F894DEBFB6
S11328E00FBECDBFDF91CF910895CF93DF931F9299
S11328F01F92CDB7DEB79A83898389819A812CEFA1
S113290038E5FC013183208389819A812AE63BE5FD
S1132910FC013383228389819A8128E53DE5FC010A
S11329203583248389819A812CEB3EE5FC0137832E
S1132930268389819A8125E93FE5FC013187208737
S113294089819A812DED3FE5FC01338722878981B6
S11329509A8125E93FE5FC013587248789819A819D
S11329602CEB3EE5FC013787268789819A8128E58F
S11329703DE5FC01318B208B89819A812AE63BE578
S1132980FC01338B228B89819A812CEF38E5FC0181
S1132990358B248B86E190E07BD19C0189819A81DF
S11329A0FC01378B268B00000F900F90DF91CF91A5
S11329B00895CF93DF931F921F92CDB7DEB79A830A
S11329C0898389819A81FC0186899789F9D10000DC
S11329D00F900F90DF91CF910895CF93DF931F92C3
S11329E01F92CDB7DEB71092290580E190E09A835B
S11329F0898385EC90E029813A81232F3327FC01D8
S1132A00208384EC90E02981FC01208381EC90E018
S1132A1028E9FC01208382EC90E026E0FC0120837D
S1132A2000000F900F90DF91CF910895CF93DF9323
S1132A301F921F92CDB7DEB783E390E09A83898318
S1132A408DEC90E029813A81232F3327FC012083E8
S1132A508CEC90E02981FC01208389EC90E028E94A
S1132A60FC0120838AEC90E026E0FC012083000036
S1132A700F900F90DF91CF9108951F920F920090C5
S1132A805F000F92112400905B000F922F933F93ED
S1132A904F935F936F937F938F939F93AF93BF9362
S1132AA0EF93FF93CF93DF931F92CDB7DEB786ECFE
S1132AB090E0FC018081898380912905882F90E032
S1132AC0875D9B4F2981FC012083809129058F5FBD
S1132AD0809329058981823121F487ED93E00E9456
S1132AE0B70A00000F90DF91CF91FF91EF91BF9152
S1132AF0AF919F918F917F916F915F914F913F9192
S1132B002F910F9000925B000F9000925F000F9046
S1132B101F9018951F920F9200905F000F9211243E
S1132B2000905B000F928F939F93EF93FF93CF934B
S1132B30DF931F92CDB7DEB78EEC90E0FC0180816D
S1132B40898300000F90DF91CF91FF91EF919F91C6
S1132B508F910F9000925B000F9000925F000F9096
S1132B601F901895CF93DF9300D01F92CDB7DEB797
S1132B709B838A836C838AE295E0D8D919829981F0
S1132B808C81981708F580EC90E0FC018081882FF7
S1132B9090E08072992721E0892B09F020E022231C
S1132BA011F00000F0CF86EC90E02981222F30E074
S1132BB04A815B81240F351FF9012081FC012083A8
S1132BC089818F5F8983DBCF8AE295E0CAD90000CF
S1132BD00F900F900F900F90DF91CF910895CF93A6
S1132BE0DF9300D01F92CDB7DEB79A8389837C83AD
S1132BF06B8389819A81019739F48B819C81019639
S1132C0019F48AE295E080D900000F900F900F909C
S1132C100F90DF91CF910895CF93DF93CDB7DEB7B7
S1132C206FEF7FEF81E090E0DADFDF91CF910895DD
S1132C30DB018F939F9322D0BF91AF91A29F800D10
S1132C40911DA39F900DB29F900D11240895EE0F36
S1132C50FF1F881F8BBF0790F691E02D1994A29F48
S1132C60B001B39FC001A39F700D811D1124911D5C
S1132C70B29F700D811D1124911D0895F0DFA59F51
S1132C80900DB49F900DA49F800D911D1124089563
S1132C900F931F93CF93DF938230910510F482E05A
S1132CA090E0E0912D05F0912E0520E030E0A0E0C9
S1132CB0B0E0309719F140815181028113814817A6
S1132CC05907C8F08417950769F4109731F01296E4
S1132CD00C93129713961C9327C000932D05109301
S1132CE02E0522C02115310519F04217530718F497
S1132CF09A01BD01EF01DF01F801DBCF2115310598
S1132D00F9F0281B390B2430310580F48A819B812A
S1132D106115710521F0FB019383828304C09093B4
S1132D202E0580932D05FE01329644C0FE01E20F6C
S1132D30F31F8193919322503109398328833AC038
S1132D4020912B0530912C05232B41F42091020274
S1132D503091030230932C0520932B05209100021F
S1132D60309101022115310541F42DB73EB7409150
S1132D70040250910502241B350BE0912B05F091C0
S1132D802C05E217F307A0F42E1B3F0B2817390775
S1132D9078F0AC014E5F5F4F2417350748F04E0FB3
S1132DA05F1F50932C0540932B058193919302C090
S1132DB0E0E0F0E0CF01DF91CF911F910F910895F2
S1132DC0CF93DF93009709F481C0FC0132971382FB
S1132DD01282A0912D05B0912E05109781F42081C7
S1132DE03181820F931F20912B0530912C052817D8
S1132DF0390751F5F0932C05E0932B0567C0ED01DD
S1132E0020E030E0CE17DF0740F44A815B819E0169
S1132E1041155105F1F0EA01F5CFD383C283408116
S1132E205181840F951FC817D90759F48881998156
S1132E30840F951F0296918380838A819B8193835B
S1132E4082832115310529F4F0932E05E0932D0595
S1132E503DC0E901FB83EA8349915991C40FD51F11
S1132E60EC17FD0761F480819181840F951F029610
S1132E70E90199838883828193819B838A83E0E03B
S1132E80F0E012968D919C911397009719F0FD0133
S1132E90DC01F7CF8D919C9111979D012E5F3F4FDF
S1132EA0820F931F20912B0530912C052817390789
S1132EB069F4309729F410922E0510922D0502C062
S1132EC013821282B0932C05A0932B05DF91CF912E
S1132ED0089513E0CBEDD3E000E005C0802FFE01A0
S1132EE0B6DE2196011DCC3DD10780E00807B1F77D
S1072EF0F894FFCF80
S1092EF400002F05200080
S9030000FC
